{
  "_format": "hh-sol-artifact-1",
  "contractName": "Factory",
  "sourceName": "contracts/Factory.sol",
  "abi": [
    {
      "inputs": [
        {
          "internalType": "address",
          "name": "_sl",
          "type": "address"
        },
        {
          "internalType": "address",
          "name": "_owner",
          "type": "address"
        },
        {
          "internalType": "uint256",
          "name": "_maxPotatoBatchCapacity",
          "type": "uint256"
        },
        {
          "internalType": "uint256",
          "name": "_maxChipsPacketBatchCapacity",
          "type": "uint256"
        }
      ],
      "stateMutability": "nonpayable",
      "type": "constructor"
    },
    {
      "inputs": [
        {
          "internalType": "uint256",
          "name": "",
          "type": "uint256"
        }
      ],
      "name": "ArrivedBatchDetails",
      "outputs": [
        {
          "internalType": "uint256",
          "name": "logisticId",
          "type": "uint256"
        },
        {
          "internalType": "address",
          "name": "logisticContractAddr",
          "type": "address"
        },
        {
          "internalType": "uint256",
          "name": "weight",
          "type": "uint256"
        },
        {
          "internalType": "uint256",
          "name": "oqs",
          "type": "uint256"
        },
        {
          "internalType": "uint256",
          "name": "time",
          "type": "uint256"
        }
      ],
      "stateMutability": "view",
      "type": "function"
    },
    {
      "inputs": [
        {
          "internalType": "uint256",
          "name": "",
          "type": "uint256"
        }
      ],
      "name": "DispatchedChipsPacketBatchDetails",
      "outputs": [
        {
          "internalType": "uint256",
          "name": "logisticId",
          "type": "uint256"
        },
        {
          "internalType": "address",
          "name": "logisticContractAddr",
          "type": "address"
        },
        {
          "internalType": "uint256",
          "name": "weight",
          "type": "uint256"
        },
        {
          "internalType": "uint256",
          "name": "oqs",
          "type": "uint256"
        },
        {
          "internalType": "uint256",
          "name": "time",
          "type": "uint256"
        }
      ],
      "stateMutability": "view",
      "type": "function"
    },
    {
      "inputs": [],
      "name": "admin",
      "outputs": [
        {
          "internalType": "address",
          "name": "",
          "type": "address"
        }
      ],
      "stateMutability": "view",
      "type": "function"
    },
    {
      "inputs": [
        {
          "internalType": "uint256",
          "name": "",
          "type": "uint256"
        }
      ],
      "name": "areChipsPreparedFromPotatoBatchOf",
      "outputs": [
        {
          "internalType": "bool",
          "name": "",
          "type": "bool"
        }
      ],
      "stateMutability": "view",
      "type": "function"
    },
    {
      "inputs": [
        {
          "internalType": "uint256",
          "name": "chipsPacketBatchId",
          "type": "uint256"
        },
        {
          "components": [
            {
              "internalType": "uint256",
              "name": "potatoBatchId",
              "type": "uint256"
            },
            {
              "components": [
                {
                  "internalType": "enum FactoryInterface.Flavor",
                  "name": "flavor",
                  "type": "uint8"
                },
                {
                  "internalType": "enum FactoryInterface.Texture",
                  "name": "texture",
                  "type": "uint8"
                }
              ],
              "internalType": "struct FactoryInterface.ChipsDetail",
              "name": "chipsDetail",
              "type": "tuple"
            },
            {
              "components": [
                {
                  "internalType": "uint256",
                  "name": "cookingTemperature",
                  "type": "uint256"
                },
                {
                  "internalType": "enum FactoryInterface.Ingredient[]",
                  "name": "ingredients",
                  "type": "uint8[]"
                }
              ],
              "internalType": "struct FactoryInterface.ProcessDetails",
              "name": "processDetails",
              "type": "tuple"
            },
            {
              "components": [
                {
                  "internalType": "enum FactoryInterface.PackagingMaterial",
                  "name": "packagingMaterial",
                  "type": "uint8"
                },
                {
                  "internalType": "enum FactoryInterface.PackageSize",
                  "name": "packageSize",
                  "type": "uint8"
                }
              ],
              "internalType": "struct FactoryInterface.PackagingDetails",
              "name": "packagingDetails",
              "type": "tuple"
            },
            {
              "internalType": "uint256",
              "name": "totalPackets",
              "type": "uint256"
            },
            {
              "internalType": "uint256",
              "name": "totalWeight",
              "type": "uint256"
            },
            {
              "internalType": "uint256",
              "name": "productionDate",
              "type": "uint256"
            },
            {
              "internalType": "uint256",
              "name": "shelfLife",
              "type": "uint256"
            }
          ],
          "internalType": "struct FactoryInterface.ChipsPacketBatch",
          "name": "_details",
          "type": "tuple"
        }
      ],
      "name": "chipsBatchPrepared",
      "outputs": [],
      "stateMutability": "nonpayable",
      "type": "function"
    },
    {
      "inputs": [
        {
          "internalType": "uint256",
          "name": "",
          "type": "uint256"
        }
      ],
      "name": "chipsPacketBatchOf",
      "outputs": [
        {
          "internalType": "uint256",
          "name": "potatoBatchId",
          "type": "uint256"
        },
        {
          "components": [
            {
              "internalType": "enum FactoryInterface.Flavor",
              "name": "flavor",
              "type": "uint8"
            },
            {
              "internalType": "enum FactoryInterface.Texture",
              "name": "texture",
              "type": "uint8"
            }
          ],
          "internalType": "struct FactoryInterface.ChipsDetail",
          "name": "chipsDetail",
          "type": "tuple"
        },
        {
          "components": [
            {
              "internalType": "uint256",
              "name": "cookingTemperature",
              "type": "uint256"
            },
            {
              "internalType": "enum FactoryInterface.Ingredient[]",
              "name": "ingredients",
              "type": "uint8[]"
            }
          ],
          "internalType": "struct FactoryInterface.ProcessDetails",
          "name": "processDetails",
          "type": "tuple"
        },
        {
          "components": [
            {
              "internalType": "enum FactoryInterface.PackagingMaterial",
              "name": "packagingMaterial",
              "type": "uint8"
            },
            {
              "internalType": "enum FactoryInterface.PackageSize",
              "name": "packageSize",
              "type": "uint8"
            }
          ],
          "internalType": "struct FactoryInterface.PackagingDetails",
          "name": "packagingDetails",
          "type": "tuple"
        },
        {
          "internalType": "uint256",
          "name": "totalPackets",
          "type": "uint256"
        },
        {
          "internalType": "uint256",
          "name": "totalWeight",
          "type": "uint256"
        },
        {
          "internalType": "uint256",
          "name": "productionDate",
          "type": "uint256"
        },
        {
          "internalType": "uint256",
          "name": "shelfLife",
          "type": "uint256"
        }
      ],
      "stateMutability": "view",
      "type": "function"
    },
    {
      "inputs": [],
      "name": "currentAllocation",
      "outputs": [
        {
          "internalType": "uint256",
          "name": "",
          "type": "uint256"
        }
      ],
      "stateMutability": "view",
      "type": "function"
    },
    {
      "inputs": [],
      "name": "currentChipsPacketBatchAllocation",
      "outputs": [
        {
          "internalType": "uint256",
          "name": "",
          "type": "uint256"
        }
      ],
      "stateMutability": "view",
      "type": "function"
    },
    {
      "inputs": [
        {
          "internalType": "uint256",
          "name": "_chipsPacketBatchId",
          "type": "uint256"
        },
        {
          "internalType": "uint256",
          "name": "_logisticId",
          "type": "uint256"
        },
        {
          "internalType": "address",
          "name": "_logisticContractAddr",
          "type": "address"
        },
        {
          "internalType": "uint256",
          "name": "_oqs",
          "type": "uint256"
        },
        {
          "internalType": "uint256",
          "name": "_weight",
          "type": "uint256"
        }
      ],
      "name": "dispactchChipsPacketBatchToRS",
      "outputs": [],
      "stateMutability": "nonpayable",
      "type": "function"
    },
    {
      "inputs": [],
      "name": "maxCapacity",
      "outputs": [
        {
          "internalType": "uint256",
          "name": "",
          "type": "uint256"
        }
      ],
      "stateMutability": "view",
      "type": "function"
    },
    {
      "inputs": [],
      "name": "maxChipsPacketBatchCapacity",
      "outputs": [
        {
          "internalType": "uint256",
          "name": "",
          "type": "uint256"
        }
      ],
      "stateMutability": "view",
      "type": "function"
    },
    {
      "inputs": [
        {
          "internalType": "uint256",
          "name": "_potatoBatchId",
          "type": "uint256"
        },
        {
          "internalType": "uint256",
          "name": "_oqs",
          "type": "uint256"
        },
        {
          "internalType": "uint256",
          "name": "_weight",
          "type": "uint256"
        }
      ],
      "name": "potatoBatchStoredAtFactory",
      "outputs": [],
      "stateMutability": "nonpayable",
      "type": "function"
    },
    {
      "inputs": [
        {
          "internalType": "uint256",
          "name": "_batchId",
          "type": "uint256"
        },
        {
          "internalType": "uint256",
          "name": "_logisticId",
          "type": "uint256"
        }
      ],
      "name": "receivedFromLogistic",
      "outputs": [],
      "stateMutability": "nonpayable",
      "type": "function"
    },
    {
      "inputs": [],
      "name": "registrar",
      "outputs": [
        {
          "internalType": "address",
          "name": "",
          "type": "address"
        }
      ],
      "stateMutability": "view",
      "type": "function"
    }
  ],
  "bytecode": "0x608060405234801561001057600080fd5b506040516111ba3803806111ba83398101604081905261002f91610086565b600080546001600160a01b039485166001600160a01b03199182161790915560018054959094169416939093179091556002556008556100c9565b80516001600160a01b038116811461008157600080fd5b919050565b6000806000806080858703121561009c57600080fd5b6100a58561006a565b93506100b36020860161006a565b6040860151606090960151949790965092505050565b6110e2806100d86000396000f3fe608060405234801561001057600080fd5b50600436106100ea5760003560e01c8063c4e9f5ef1161008c578063e3ac39b111610066578063e3ac39b114610261578063eaf676f21461026a578063f66874b71461027d578063f851a440146102c457600080fd5b8063c4e9f5ef14610207578063ccd9f2441461022e578063d8319b4e1461024157600080fd5b806359b6a0c9116100c857806359b6a0c9146101ad57806359d85194146101b65780636bd9c5d7146101cb57806376388a02146101fe57600080fd5b80632b20e397146100ef578063345210dd1461011f578063509b08e114610136575b600080fd5b600154610102906001600160a01b031681565b6040516001600160a01b0390911681526020015b60405180910390f35b61012860035481565b604051908152602001610116565b61017d610144366004610bb8565b6006602052600090815260409020805460018201546002830154600384015460049094015492936001600160a01b039092169290919085565b604080519586526001600160a01b039094166020860152928401919091526060830152608082015260a001610116565b61012860025481565b6101c96101c4366004610dc8565b6102d7565b005b6101ee6101d9366004610bb8565b60076020526000908152604090205460ff1681565b6040519015158152602001610116565b61012860085481565b61021a610215366004610bb8565b61062e565b604051610116989796959493929190610ef6565b6101c961023c366004610fc4565b6107e5565b6101c961024f366004611019565b60009182526005602052604090912055565b61012860095481565b6101c961027836600461103b565b61097f565b61017d61028b366004610bb8565b6005602052600090815260409020805460018201546002830154600384015460049094015492936001600160a01b039092169290919085565b600054610102906001600160a01b031681565b6001546001600160a01b031633146103105760405162461bcd60e51b815260206004820152600060248201526044015b60405180910390fd5b8051600090815260056020526040902060020154806103685760405162461bcd60e51b81526020600482015260146024820152735765696768742063616e2774206265207a65726f60601b6044820152606401610307565b8060035410156103b35760405162461bcd60e51b815260206004820152601660248201527524b739bab33334b1b4b2b73a1031b0b830b1b4ba3c9760511b6044820152606401610307565b80600360008282546103c5919061107d565b909155505081516000526005602052815160009081526007602052604090205460ff161561045b5760405162461bcd60e51b815260206004820152603b60248201527f506f7461746f20626174636820697320616c7265616479207573656420666f7260448201527f20707265706172696e6720636869707320696e20666163746f727900000000006064820152608401610307565b8160a0015160095461046d9190611094565b60085410156104da5760405162461bcd60e51b815260206004820152603360248201527f4d61782073746f72616765206361706163697479206f6620636869707320706160448201527218dad95d0818985d18da08195e18d959591959606a1b6064820152608401610307565b8160a00151600960008282546104f09190611094565b909155505060008381526004602090815260409091208351815590830151805160018084018054879594939192839160ff19169083600281111561053657610536610e9a565b021790555060208201518154829061ff00191661010083600181111561055e5761055e610e9a565b021790555050506040820151805160028301908155602080830151805161058b9260038701920190610aef565b50505060608201518051600483018054909190829060ff1916600183818111156105b7576105b7610e9a565b021790555060208201518154829061ff0019166101008360028111156105df576105df610e9a565b021790555050506080820151600582015560a0820151600682015560c082015160078083019190915560e090920151600890910155600093845260046020526040909320429301929092555050565b6004602052600090815260409081902080548251808401909352600182018054919391829060ff16600281111561066757610667610e9a565b600281111561067857610678610e9a565b81528154602090910190610100900460ff16600181111561069b5761069b610e9a565b60018111156106ac576106ac610e9a565b815250509080600201604051806040016040529081600082015481526020016001820180548060200260200160405190810160405280929190818152602001828054801561074957602002820191906000526020600020906000905b82829054906101000a900460ff16600781111561072757610727610e9a565b8152602060019283018181049485019490930390920291018084116107085790505b5050509190925250506040805180820190915260048401805493949391925090829060ff16600181111561077f5761077f610e9a565b600181111561079057610790610e9a565b81528154602090910190610100900460ff1660028111156107b3576107b3610e9a565b60028111156107c4576107c4610e9a565b81525050908060050154908060060154908060070154908060080154905088565b6001546001600160a01b031633146108195760405162461bcd60e51b81526020600482015260006024820152604401610307565b8060095410156108805760405162461bcd60e51b815260206004820152602c60248201527f496e73756666696369656e74206361706163697479206f66206368697073207060448201526b30b1b5b2ba103130ba31b41760a11b6064820152608401610307565b600085815260066020526040902060020154156108f05760405162461bcd60e51b815260206004820152602860248201527f6368697073207061636b657420626174636820697320616c72656164792044696044820152671cdc185d18da195960c21b6064820152608401610307565b8060096000828254610902919061107d565b90915550506040805160a0810182529485526001600160a01b03938416602080870191825286830193845260608701948552426080880190815260009889526006909152919096209451855594516001850180546001600160a01b0319169190941617909255905160028301555160038201559051600490910155565b6001546001600160a01b031633146109b35760405162461bcd60e51b81526020600482015260006024820152604401610307565b80600081116109fb5760405162461bcd60e51b81526020600482015260146024820152735765696768742063616e2774206265207a65726f60601b6044820152606401610307565b60025481600354610a0c9190611094565b1115610a535760405162461bcd60e51b815260206004820152601660248201527526b0bc1031b0b830b1b4ba3c9032bc31b2b2b232b21760511b6044820152606401610307565b8060036000828254610a659190611094565b909155505060008481526005602052604090206002015415610ac95760405162461bcd60e51b815260206004820152601b60248201527f506f7461746f20626174636820616c72656164792073746f72656400000000006044820152606401610307565b506000928352600560205260409092206002810192909255600382015542600490910155565b82805482825590600052602060002090601f01602090048101928215610b935791602002820160005b83821115610b6457835183826101000a81548160ff02191690836007811115610b4357610b43610e9a565b02179055509260200192600101602081600001049283019260010302610b18565b8015610b915782816101000a81549060ff0219169055600101602081600001049283019260010302610b64565b505b50610b9f929150610ba3565b5090565b5b80821115610b9f5760008155600101610ba4565b600060208284031215610bca57600080fd5b5035919050565b634e487b7160e01b600052604160045260246000fd5b6040805190810167ffffffffffffffff81118282101715610c0a57610c0a610bd1565b60405290565b604051610100810167ffffffffffffffff81118282101715610c0a57610c0a610bd1565b604051601f8201601f1916810167ffffffffffffffff81118282101715610c5d57610c5d610bd1565b604052919050565b60038110610c7257600080fd5b50565b60028110610c7257600080fd5b600060408284031215610c9457600080fd5b610c9c610be7565b90508135610ca981610c65565b81526020820135610cb981610c75565b602082015292915050565b600060408284031215610cd657600080fd5b610cde610be7565b90508135815260208083013567ffffffffffffffff80821115610d0057600080fd5b818501915085601f830112610d1457600080fd5b813581811115610d2657610d26610bd1565b8060051b9150610d37848301610c34565b8181529183018401918481019088841115610d5157600080fd5b938501935b83851015610d80578435925060088310610d705760008081fd5b8282529385019390850190610d56565b808688015250505050505092915050565b600060408284031215610da357600080fd5b610dab610be7565b90508135610db881610c75565b81526020820135610cb981610c65565b60008060408385031215610ddb57600080fd5b82359150602083013567ffffffffffffffff80821115610dfa57600080fd5b908401906101408287031215610e0f57600080fd5b610e17610c10565b82358152610e288760208501610c82565b6020820152606083013582811115610e3f57600080fd5b610e4b88828601610cc4565b604083015250610e5e8760808501610d91565b606082015260c0830135608082015260e083013560a082015261010083013560c082015261012083013560e08201528093505050509250929050565b634e487b7160e01b600052602160045260246000fd5b60038110610c7257610c72610e9a565b60028110610c7257610c72610e9a565b8051610edb81610ec0565b82526020810151610eeb81610eb0565b806020840152505050565b60006101408a835260208a51610f0b81610eb0565b848201528a810151610f1c81610ec0565b8060408601525081606085015261018084018a5183860152818b0151925060406101608601528083518083526101a0870191508385019450600092505b80831015610f8957845160088110610f7357610f73610e9a565b8252938301936001929092019190830190610f59565b509350610f9d925050506080830188610ed0565b8560c08301528460e083015283610100830152826101208301529998505050505050505050565b600080600080600060a08688031215610fdc57600080fd5b853594506020860135935060408601356001600160a01b038116811461100157600080fd5b94979396509394606081013594506080013592915050565b6000806040838503121561102c57600080fd5b50508035926020909101359150565b60008060006060848603121561105057600080fd5b505081359360208301359350604090920135919050565b634e487b7160e01b600052601160045260246000fd5b60008282101561108f5761108f611067565b500390565b600082198211156110a7576110a7611067565b50019056fea2646970667358221220d5b90afc34bfa647c489c4ec300334c9e0e4027f70a90fafe49d771fa9680edc64736f6c63430008090033",
  "linkReferences": {},
  "deployedLinkReferences": {}
}