{
  "_format": "hh-sol-artifact-1",
  "contractName": "Farm",
  "sourceName": "contracts/Farm.sol",
  "abi": [
    {
      "inputs": [
        {
          "internalType": "address",
          "name": "_sl",
          "type": "address"
        },
        {
          "internalType": "address",
          "name": "_owner",
          "type": "address"
        },
        {
          "internalType": "uint256",
          "name": "_maxPotatoBatchCapacity",
          "type": "uint256"
        }
      ],
      "stateMutability": "nonpayable",
      "type": "constructor"
    },
    {
      "inputs": [],
      "name": "admin",
      "outputs": [
        {
          "internalType": "address",
          "name": "",
          "type": "address"
        }
      ],
      "stateMutability": "view",
      "type": "function"
    },
    {
      "inputs": [],
      "name": "currentAllocation",
      "outputs": [
        {
          "internalType": "uint256",
          "name": "",
          "type": "uint256"
        }
      ],
      "stateMutability": "view",
      "type": "function"
    },
    {
      "inputs": [
        {
          "internalType": "uint256",
          "name": "",
          "type": "uint256"
        }
      ],
      "name": "farmPotatoBatchDetailOf",
      "outputs": [
        {
          "components": [
            {
              "internalType": "enum FarmInterface.Size",
              "name": "size",
              "type": "uint8"
            },
            {
              "internalType": "enum FarmInterface.Shape",
              "name": "shape",
              "type": "uint8"
            },
            {
              "internalType": "enum FarmInterface.Shape",
              "name": "color",
              "type": "uint8"
            },
            {
              "internalType": "enum FarmInterface.ExternalQuality",
              "name": "externalQuality",
              "type": "uint8"
            },
            {
              "internalType": "enum FarmInterface.InternalQuality",
              "name": "internalQuality",
              "type": "uint8"
            },
            {
              "internalType": "enum FarmInterface.Weight",
              "name": "weight",
              "type": "uint8"
            }
          ],
          "internalType": "struct FarmInterface.BatchQuality",
          "name": "harvestBatchQuality",
          "type": "tuple"
        },
        {
          "internalType": "uint256",
          "name": "oqsHarvest",
          "type": "uint256"
        },
        {
          "internalType": "uint256",
          "name": "harvestBatchWeight",
          "type": "uint256"
        },
        {
          "internalType": "uint256",
          "name": "collectedAt",
          "type": "uint256"
        },
        {
          "internalType": "uint256",
          "name": "logisticId",
          "type": "uint256"
        },
        {
          "internalType": "uint256",
          "name": "weightDispatch",
          "type": "uint256"
        },
        {
          "internalType": "uint256",
          "name": "oqsDispatch",
          "type": "uint256"
        },
        {
          "internalType": "address",
          "name": "logisticContractAddr",
          "type": "address"
        }
      ],
      "stateMutability": "view",
      "type": "function"
    },
    {
      "inputs": [],
      "name": "maxCapacity",
      "outputs": [
        {
          "internalType": "uint256",
          "name": "",
          "type": "uint256"
        }
      ],
      "stateMutability": "view",
      "type": "function"
    },
    {
      "inputs": [
        {
          "internalType": "uint256",
          "name": "_potatoBatchId",
          "type": "uint256"
        },
        {
          "components": [
            {
              "internalType": "enum FarmInterface.Size",
              "name": "size",
              "type": "uint8"
            },
            {
              "internalType": "enum FarmInterface.Shape",
              "name": "shape",
              "type": "uint8"
            },
            {
              "internalType": "enum FarmInterface.Shape",
              "name": "color",
              "type": "uint8"
            },
            {
              "internalType": "enum FarmInterface.ExternalQuality",
              "name": "externalQuality",
              "type": "uint8"
            },
            {
              "internalType": "enum FarmInterface.InternalQuality",
              "name": "internalQuality",
              "type": "uint8"
            },
            {
              "internalType": "enum FarmInterface.Weight",
              "name": "weight",
              "type": "uint8"
            }
          ],
          "internalType": "struct FarmInterface.BatchQuality",
          "name": "_qq",
          "type": "tuple"
        },
        {
          "internalType": "uint256",
          "name": "_weight",
          "type": "uint256"
        },
        {
          "internalType": "uint256",
          "name": "_oqs",
          "type": "uint256"
        }
      ],
      "name": "potatoBatchCollectedAtFarm",
      "outputs": [],
      "stateMutability": "nonpayable",
      "type": "function"
    },
    {
      "inputs": [
        {
          "internalType": "uint256",
          "name": "_potatoBatchId",
          "type": "uint256"
        },
        {
          "internalType": "uint256",
          "name": "_logisticId",
          "type": "uint256"
        },
        {
          "internalType": "address",
          "name": "_logisticContractAddr",
          "type": "address"
        },
        {
          "internalType": "uint256",
          "name": "_oqs",
          "type": "uint256"
        },
        {
          "internalType": "uint256",
          "name": "_weight",
          "type": "uint256"
        }
      ],
      "name": "potatoBatchDispatchedFromFarm",
      "outputs": [],
      "stateMutability": "nonpayable",
      "type": "function"
    },
    {
      "inputs": [],
      "name": "registrar",
      "outputs": [
        {
          "internalType": "address",
          "name": "",
          "type": "address"
        }
      ],
      "stateMutability": "view",
      "type": "function"
    }
  ],
  "bytecode": "0x608060405234801561001057600080fd5b50604051610a91380380610a9183398101604081905261002f91610083565b600080546001600160a01b039384166001600160a01b03199182161790915560018054939094169216919091179091556002556100bf565b80516001600160a01b038116811461007e57600080fd5b919050565b60008060006060848603121561009857600080fd5b6100a184610067565b92506100af60208501610067565b9150604084015190509250925092565b6109c3806100ce6000396000f3fe608060405234801561001057600080fd5b506004361061007d5760003560e01c80633b3c461f1161005b5780633b3c461f146100de57806359b6a0c914610105578063758ecb721461010e578063f851a4401461012157600080fd5b80632b20e39714610082578063345210dd146100b257806334acf9d3146100c9575b600080fd5b600154610095906001600160a01b031681565b6040516001600160a01b0390911681526020015b60405180910390f35b6100bb60035481565b6040519081526020016100a9565b6100dc6100d73660046106dd565b610134565b005b6100f16100ec366004610732565b6102c2565b6040516100a9989796959493929190610788565b6100bb60025481565b6100dc61011c36600461086c565b610456565b600054610095906001600160a01b031681565b6001546001600160a01b0316331461016d5760405162461bcd60e51b815260206004820152600060248201526044015b60405180910390fd5b80600081116101b55760405162461bcd60e51b81526020600482015260146024820152735765696768742063616e2774206265207a65726f60601b6044820152606401610164565b8060035410156102005760405162461bcd60e51b815260206004820152601660248201527524b739bab33334b1b4b2b73a1031b0b830b1b4ba3c9760511b6044820152606401610164565b8060036000828254610212919061095e565b9091555050600086815260046020526040902060050154156102765760405162461bcd60e51b815260206004820152601f60248201527f506f7461746f20626174636820616c72656164792044697370617463686564006044820152606401610164565b506000948552600460208190526040909520948501939093556007840180546001600160a01b0319166001600160a01b0393909316929092179091556005830191909155600690910155565b60046020526000908152604090819020815160c0810190925280549091908290829060ff1660028111156102f8576102f861074b565b60028111156103095761030961074b565b81528154602090910190610100900460ff16600181111561032c5761032c61074b565b600181111561033d5761033d61074b565b8152815460209091019062010000900460ff1660018111156103615761036161074b565b60018111156103725761037261074b565b815281546020909101906301000000900460ff1660028111156103975761039761074b565b60028111156103a8576103a861074b565b81528154602090910190640100000000900460ff1660028111156103ce576103ce61074b565b60028111156103df576103df61074b565b8152815460209091019065010000000000900460ff1660028111156104065761040661074b565b60028111156104175761041761074b565b9052506001820154600283015460038401546004850154600586015460068701546007909701549596949593949293919290916001600160a01b031688565b6001546001600160a01b0316331461048a5760405162461bcd60e51b81526020600482015260006024820152604401610164565b81600081116104d25760405162461bcd60e51b81526020600482015260146024820152735765696768742063616e2774206265207a65726f60601b6044820152606401610164565b600254816003546104e39190610975565b111561052a5760405162461bcd60e51b815260206004820152601660248201527526b0bc1031b0b830b1b4ba3c9032bc31b2b2b232b21760511b6044820152606401610164565b806003600082825461053c9190610975565b9091555050600085815260046020526040902060020154156105a05760405162461bcd60e51b815260206004820152601b60248201527f506f7461746f20626174636820616c72656164792073746f72656400000000006044820152606401610164565b60008581526004602052604090208451815486929190829060ff191660018360028111156105d0576105d061074b565b021790555060208201518154829061ff0019166101008360018111156105f8576105f861074b565b021790555060408201518154829062ff00001916620100008360018111156106225761062261074b565b021790555060608201518154829063ff0000001916630100000083600281111561064e5761064e61074b565b021790555060808201518154829064ff00000000191664010000000083600281111561067c5761067c61074b565b021790555060a08201518154829065ff00000000001916650100000000008360028111156106ac576106ac61074b565b0217905550505060009485525060046020526040909320600281019190915560018101929092555042600390910155565b600080600080600060a086880312156106f557600080fd5b853594506020860135935060408601356001600160a01b038116811461071a57600080fd5b94979396509394606081013594506080013592915050565b60006020828403121561074457600080fd5b5035919050565b634e487b7160e01b600052602160045260246000fd5b600381106107715761077161074b565b50565b600281106107845761078461074b565b9052565b88516101a082019061079981610761565b8083525060208a01516107af6020840182610774565b5060408a01516107c26040840182610774565b5060608a01516107d181610761565b606083015260808a01516107e481610761565b608083015260a08a01516107f781610761565b8060a0840152508860c08301528760e08301528661010083015285610120830152846101408301528361016083015261083c6101808301846001600160a01b03169052565b9998505050505050505050565b80356003811061085857600080fd5b919050565b80356002811061085857600080fd5b60008060008084860361012081121561088457600080fd5b8535945060c0601f198201121561089a57600080fd5b5060405160c0810181811067ffffffffffffffff821117156108cc57634e487b7160e01b600052604160045260246000fd5b6040526108db60208701610849565b81526108e96040870161085d565b60208201526108fa6060870161085d565b604082015261090b60808701610849565b606082015261091c60a08701610849565b608082015261092d60c08701610849565b60a0820152939693955050505060e082013591610100013590565b634e487b7160e01b600052601160045260246000fd5b60008282101561097057610970610948565b500390565b6000821982111561098857610988610948565b50019056fea26469706673582212206ddf93a94f8ad8301d17859e2dc00ea6b23de0605dd1e152c9c89390cbd06f5e64736f6c63430008090033",
  "linkReferences": {},
  "deployedLinkReferences": {}
}