{
  "_format": "hh-sol-artifact-1",
  "contractName": "LocalCollector",
  "sourceName": "contracts/LocalCollector.sol",
  "abi": [
    {
      "inputs": [
        {
          "internalType": "address",
          "name": "_sl",
          "type": "address"
        },
        {
          "internalType": "address",
          "name": "_owner",
          "type": "address"
        },
        {
          "internalType": "uint256",
          "name": "_maxPotatoBatchCapacity",
          "type": "uint256"
        }
      ],
      "stateMutability": "nonpayable",
      "type": "constructor"
    },
    {
      "inputs": [
        {
          "internalType": "uint256",
          "name": "",
          "type": "uint256"
        }
      ],
      "name": "ArrivedBatchDetails",
      "outputs": [
        {
          "internalType": "uint256",
          "name": "logisticId",
          "type": "uint256"
        },
        {
          "internalType": "address",
          "name": "logisticContractAddr",
          "type": "address"
        },
        {
          "internalType": "uint256",
          "name": "weight",
          "type": "uint256"
        },
        {
          "internalType": "uint256",
          "name": "oqs",
          "type": "uint256"
        },
        {
          "internalType": "uint256",
          "name": "time",
          "type": "uint256"
        }
      ],
      "stateMutability": "view",
      "type": "function"
    },
    {
      "inputs": [
        {
          "internalType": "uint256",
          "name": "",
          "type": "uint256"
        }
      ],
      "name": "DispatchedBatchDetails",
      "outputs": [
        {
          "internalType": "uint256",
          "name": "logisticId",
          "type": "uint256"
        },
        {
          "internalType": "address",
          "name": "logisticContractAddr",
          "type": "address"
        },
        {
          "internalType": "uint256",
          "name": "weight",
          "type": "uint256"
        },
        {
          "internalType": "uint256",
          "name": "oqs",
          "type": "uint256"
        },
        {
          "internalType": "uint256",
          "name": "time",
          "type": "uint256"
        }
      ],
      "stateMutability": "view",
      "type": "function"
    },
    {
      "inputs": [],
      "name": "admin",
      "outputs": [
        {
          "internalType": "address",
          "name": "",
          "type": "address"
        }
      ],
      "stateMutability": "view",
      "type": "function"
    },
    {
      "inputs": [],
      "name": "currentAllocation",
      "outputs": [
        {
          "internalType": "uint256",
          "name": "",
          "type": "uint256"
        }
      ],
      "stateMutability": "view",
      "type": "function"
    },
    {
      "inputs": [
        {
          "internalType": "uint256",
          "name": "_potatoBatchId",
          "type": "uint256"
        },
        {
          "internalType": "uint256",
          "name": "_logisticId",
          "type": "uint256"
        },
        {
          "internalType": "address",
          "name": "_logisticContractAddr",
          "type": "address"
        },
        {
          "internalType": "uint256",
          "name": "_oqs",
          "type": "uint256"
        },
        {
          "internalType": "uint256",
          "name": "_weight",
          "type": "uint256"
        }
      ],
      "name": "dispatchPotatoBatchToFactory",
      "outputs": [],
      "stateMutability": "nonpayable",
      "type": "function"
    },
    {
      "inputs": [],
      "name": "maxCapacity",
      "outputs": [
        {
          "internalType": "uint256",
          "name": "",
          "type": "uint256"
        }
      ],
      "stateMutability": "view",
      "type": "function"
    },
    {
      "inputs": [
        {
          "internalType": "uint256",
          "name": "_potatoBatchId",
          "type": "uint256"
        },
        {
          "internalType": "uint256",
          "name": "_oqs",
          "type": "uint256"
        },
        {
          "internalType": "uint256",
          "name": "_weight",
          "type": "uint256"
        }
      ],
      "name": "potatoBatchStoredAtLC",
      "outputs": [],
      "stateMutability": "nonpayable",
      "type": "function"
    },
    {
      "inputs": [
        {
          "internalType": "uint256",
          "name": "_batchId",
          "type": "uint256"
        },
        {
          "internalType": "uint256",
          "name": "_logisticId",
          "type": "uint256"
        }
      ],
      "name": "receivedFromLogistic",
      "outputs": [],
      "stateMutability": "nonpayable",
      "type": "function"
    },
    {
      "inputs": [],
      "name": "registrar",
      "outputs": [
        {
          "internalType": "address",
          "name": "",
          "type": "address"
        }
      ],
      "stateMutability": "view",
      "type": "function"
    }
  ],
  "bytecode": "0x608060405234801561001057600080fd5b506040516106cb3803806106cb83398101604081905261002f91610083565b600080546001600160a01b039384166001600160a01b03199182161790915560018054939094169216919091179091556002556100bf565b80516001600160a01b038116811461007e57600080fd5b919050565b60008060006060848603121561009857600080fd5b6100a184610067565b92506100af60208501610067565b9150604084015190509250925092565b6105fd806100ce6000396000f3fe608060405234801561001057600080fd5b50600436106100925760003560e01c806359b6a0c91161006657806359b6a0c91461016a578063703b635414610173578063d8319b4e14610186578063f66874b7146101a6578063f851a440146101ee57600080fd5b80625c5063146100975780632b20e397146100ac578063345210dd146100dc578063453363b5146100f3575b600080fd5b6100aa6100a53660046104c6565b610201565b005b6001546100bf906001600160a01b031681565b6040516001600160a01b0390911681526020015b60405180910390f35b6100e560035481565b6040519081526020016100d3565b61013a61010136600461051b565b6005602052600090815260409020805460018201546002830154600384015460049094015492936001600160a01b039092169290919085565b604080519586526001600160a01b039094166020860152928401919091526060830152608082015260a0016100d3565b6100e560025481565b6100aa610181366004610534565b610388565b6100aa610194366004610560565b60009182526004602052604090912055565b61013a6101b436600461051b565b60046020819052600091825260409091208054600182015460028301546003840154939094015491936001600160a01b0390911692909185565b6000546100bf906001600160a01b031681565b806000811161024e5760405162461bcd60e51b81526020600482015260146024820152735765696768742063616e2774206265207a65726f60601b60448201526064015b60405180910390fd5b8060035410156102995760405162461bcd60e51b815260206004820152601660248201527524b739bab33334b1b4b2b73a1031b0b830b1b4ba3c9760511b6044820152606401610245565b80600360008282546102ab9190610598565b90915550506000868152600560205260409020600201541561030f5760405162461bcd60e51b815260206004820152601f60248201527f506f7461746f20626174636820616c72656164792044697370617463686564006044820152606401610245565b506040805160a0810182529485526001600160a01b03938416602080870191825286830193845260608701948552426080880190815260009889526005909152919096209451855594516001850180546001600160a01b0319169190941617909255905160028301555160038201559051600490910155565b80600081116103d05760405162461bcd60e51b81526020600482015260146024820152735765696768742063616e2774206265207a65726f60601b6044820152606401610245565b600254816003546103e191906105af565b11156104285760405162461bcd60e51b815260206004820152601660248201527526b0bc1031b0b830b1b4ba3c9032bc31b2b2b232b21760511b6044820152606401610245565b806003600082825461043a91906105af565b90915550506000848152600460205260409020600201541561049e5760405162461bcd60e51b815260206004820152601b60248201527f506f7461746f20626174636820616c72656164792073746f72656400000000006044820152606401610245565b5060009283526004602081905260409093206002810191909155600381019190915542910155565b600080600080600060a086880312156104de57600080fd5b853594506020860135935060408601356001600160a01b038116811461050357600080fd5b94979396509394606081013594506080013592915050565b60006020828403121561052d57600080fd5b5035919050565b60008060006060848603121561054957600080fd5b505081359360208301359350604090920135919050565b6000806040838503121561057357600080fd5b50508035926020909101359150565b634e487b7160e01b600052601160045260246000fd5b6000828210156105aa576105aa610582565b500390565b600082198211156105c2576105c2610582565b50019056fea26469706673582212208c034c8ff6e5f143c04ddb503b2102ac901e558e44f03e09d26cf214ed7e43f164736f6c63430008090033",
  "linkReferences": {},
  "deployedLinkReferences": {}
}