{
  "_format": "hh-sol-artifact-1",
  "contractName": "RetailStore",
  "sourceName": "contracts/RetailStore.sol",
  "abi": [
    {
      "inputs": [
        {
          "internalType": "address",
          "name": "_sl",
          "type": "address"
        },
        {
          "internalType": "address",
          "name": "_owner",
          "type": "address"
        },
        {
          "internalType": "uint256",
          "name": "_maxCapacity",
          "type": "uint256"
        }
      ],
      "stateMutability": "nonpayable",
      "type": "constructor"
    },
    {
      "inputs": [
        {
          "internalType": "uint256",
          "name": "",
          "type": "uint256"
        }
      ],
      "name": "ArrivedChipsPacketBatchDetails",
      "outputs": [
        {
          "internalType": "uint256",
          "name": "logisticId",
          "type": "uint256"
        },
        {
          "internalType": "address",
          "name": "logisticContractAddr",
          "type": "address"
        },
        {
          "internalType": "uint256",
          "name": "weight",
          "type": "uint256"
        },
        {
          "internalType": "uint256",
          "name": "oqs",
          "type": "uint256"
        },
        {
          "internalType": "uint256",
          "name": "time",
          "type": "uint256"
        }
      ],
      "stateMutability": "view",
      "type": "function"
    },
    {
      "inputs": [],
      "name": "admin",
      "outputs": [
        {
          "internalType": "address",
          "name": "",
          "type": "address"
        }
      ],
      "stateMutability": "view",
      "type": "function"
    },
    {
      "inputs": [
        {
          "internalType": "uint256",
          "name": "_batchDetailsId",
          "type": "uint256"
        },
        {
          "internalType": "uint256",
          "name": "_weight",
          "type": "uint256"
        },
        {
          "internalType": "uint256",
          "name": "_oqs",
          "type": "uint256"
        }
      ],
      "name": "chipsBatchStoredAtRS",
      "outputs": [],
      "stateMutability": "nonpayable",
      "type": "function"
    },
    {
      "inputs": [
        {
          "internalType": "uint256",
          "name": "_chipsPacketId",
          "type": "uint256"
        },
        {
          "internalType": "uint256",
          "name": "_chipsPacketBatchId",
          "type": "uint256"
        },
        {
          "internalType": "enum FactoryInterface.PackageSize",
          "name": "size",
          "type": "uint8"
        }
      ],
      "name": "chipsPacketSold",
      "outputs": [],
      "stateMutability": "nonpayable",
      "type": "function"
    },
    {
      "inputs": [
        {
          "internalType": "uint256",
          "name": "",
          "type": "uint256"
        }
      ],
      "name": "chipsWeightSoldFromBatchId",
      "outputs": [
        {
          "internalType": "uint256",
          "name": "",
          "type": "uint256"
        }
      ],
      "stateMutability": "view",
      "type": "function"
    },
    {
      "inputs": [],
      "name": "currentAllocation",
      "outputs": [
        {
          "internalType": "uint256",
          "name": "",
          "type": "uint256"
        }
      ],
      "stateMutability": "view",
      "type": "function"
    },
    {
      "inputs": [],
      "name": "maxCapacity",
      "outputs": [
        {
          "internalType": "uint256",
          "name": "",
          "type": "uint256"
        }
      ],
      "stateMutability": "view",
      "type": "function"
    },
    {
      "inputs": [
        {
          "internalType": "uint256",
          "name": "_chipsPacketBatchId",
          "type": "uint256"
        },
        {
          "internalType": "uint256",
          "name": "_logisticId",
          "type": "uint256"
        }
      ],
      "name": "receivedFromLogistic",
      "outputs": [],
      "stateMutability": "nonpayable",
      "type": "function"
    },
    {
      "inputs": [],
      "name": "registrar",
      "outputs": [
        {
          "internalType": "address",
          "name": "",
          "type": "address"
        }
      ],
      "stateMutability": "view",
      "type": "function"
    },
    {
      "inputs": [
        {
          "internalType": "uint256",
          "name": "",
          "type": "uint256"
        }
      ],
      "name": "soldChipsPacket",
      "outputs": [
        {
          "internalType": "uint256",
          "name": "batchId",
          "type": "uint256"
        },
        {
          "internalType": "enum FactoryInterface.PackageSize",
          "name": "size",
          "type": "uint8"
        },
        {
          "internalType": "uint256",
          "name": "time",
          "type": "uint256"
        }
      ],
      "stateMutability": "view",
      "type": "function"
    }
  ],
  "bytecode": "0x608060405234801561001057600080fd5b5060405161089c38038061089c83398101604081905261002f91610083565b600080546001600160a01b039384166001600160a01b03199182161790915560018054939094169216919091179091556002556100bf565b80516001600160a01b038116811461007e57600080fd5b919050565b60008060006060848603121561009857600080fd5b6100a184610067565b92506100af60208501610067565b9150604084015190509250925092565b6107ce806100ce6000396000f3fe608060405234801561001057600080fd5b506004361061009e5760003560e01c80635c7867c3116100665780635c7867c314610149578063a335aaf11461015c578063d8319b4e146101d4578063dd0a333e146101f4578063f851a4401461021457600080fd5b80632b20e397146100a35780632b2b9c74146100d3578063345210dd146101145780633fe4216e1461012b57806359b6a0c914610140575b600080fd5b6001546100b6906001600160a01b031681565b6040516001600160a01b0390911681526020015b60405180910390f35b6101056100e1366004610663565b600560205260009081526040902080546001820154600290920154909160ff169083565b6040516100ca93929190610692565b61011d60035481565b6040519081526020016100ca565b61013e6101393660046106c8565b610227565b005b61011d60025481565b61013e610157366004610705565b6104da565b6101a461016a366004610663565b60046020819052600091825260409091208054600182015460028301546003840154939094015491936001600160a01b0390911692909185565b604080519586526001600160a01b039094166020860152928401919091526060830152608082015260a0016100ca565b61013e6101e2366004610731565b60009182526004602052604090912055565b61011d610202366004610663565b60066020526000908152604090205481565b6000546100b6906001600160a01b031681565b6001546001600160a01b031633146102605760405162461bcd60e51b815260206004820152600060248201526044015b60405180910390fd5b600082815260046020528082600281111561027d5761027d61067c565b141561028b57506064610318565b600182600281111561029f5761029f61067c565b14156102ad575060c8610318565b60028260028111156102c1576102c161067c565b14156102d057506101f4610318565b60405162461bcd60e51b815260206004820152601760248201527f57726f6e67206368697073207061636b65742073697a650000000000000000006044820152606401610257565b600083815260066020526040902054610332908290610769565b60008481526004602052604090206002015410156103c45760405162461bcd60e51b815260206004820152604360248201527f496e73756666696369656e74206361706163697479206f66206368697073207060448201527f61636b65742066726f6d2074686973206368697073207061636b65742062617460648201526231b41760e91b608482015260a401610257565b8060035410156104255760405162461bcd60e51b815260206004820152602660248201527f496e73756666696369656e74206361706163697479206f66206368697073207060448201526530b1b5b2ba1760d11b6064820152608401610257565b80600360008282546104379190610781565b9250508190555060405180606001604052808481526020018360028111156104615761046161067c565b81524260209182015260008681526005825260409020825181559082015160018083018054909160ff19909116908360028111156104a1576104a161067c565b02179055506040918201516002909101556000848152600660205290812080548392906104cf908490610769565b909155505050505050565b6001546001600160a01b0316331461050e5760405162461bcd60e51b81526020600482015260006024820152604401610257565b81600081116105565760405162461bcd60e51b81526020600482015260146024820152735765696768742063616e2774206265207a65726f60601b6044820152606401610257565b600254816003546105679190610769565b11156105ae5760405162461bcd60e51b815260206004820152601660248201527526b0bc1031b0b830b1b4ba3c9032bc31b2b2b232b21760511b6044820152606401610257565b80600360008282546105c09190610769565b90915550506000848152600460205260409020600201541561063b5760405162461bcd60e51b815260206004820152602e60248201527f416c72656164792073746f726564206368697073207061636b6574206261746360448201526d1a081dda5d1a081d1a1a5cc81a5960921b6064820152608401610257565b5060009283526004602081905260409093206003810191909155600281019190915542910155565b60006020828403121561067557600080fd5b5035919050565b634e487b7160e01b600052602160045260246000fd5b83815260608101600384106106b757634e487b7160e01b600052602160045260246000fd5b602082019390935260400152919050565b6000806000606084860312156106dd57600080fd5b83359250602084013591506040840135600381106106fa57600080fd5b809150509250925092565b60008060006060848603121561071a57600080fd5b505081359360208301359350604090920135919050565b6000806040838503121561074457600080fd5b50508035926020909101359150565b634e487b7160e01b600052601160045260246000fd5b6000821982111561077c5761077c610753565b500190565b60008282101561079357610793610753565b50039056fea2646970667358221220bdd2aae373f888ae1d99f013a03415270450db6327533c439eed4cfd3550401f64736f6c63430008090033",
  "linkReferences": {},
  "deployedLinkReferences": {}
}