{
  "_format": "hh-sol-artifact-1",
  "contractName": "SupplyLedger",
  "sourceName": "contracts/SupplyLedger.sol",
  "abi": [
    {
      "inputs": [
        {
          "internalType": "contract SupplyLedgerRegistrar",
          "name": "_supplyLedgerRegistrar",
          "type": "address"
        }
      ],
      "stateMutability": "nonpayable",
      "type": "constructor"
    },
    {
      "anonymous": false,
      "inputs": [
        {
          "indexed": true,
          "internalType": "address",
          "name": "FactoryAddress",
          "type": "address"
        },
        {
          "indexed": true,
          "internalType": "uint256",
          "name": "PreparedChipsPacketBatchId",
          "type": "uint256"
        }
      ],
      "name": "ChipsPacketBatchPrepared",
      "type": "event"
    },
    {
      "anonymous": false,
      "inputs": [
        {
          "indexed": true,
          "internalType": "address",
          "name": "RetailStore",
          "type": "address"
        },
        {
          "indexed": true,
          "internalType": "uint256",
          "name": "SoldChipsPacketId",
          "type": "uint256"
        }
      ],
      "name": "ChipsPacketSold",
      "type": "event"
    },
    {
      "anonymous": false,
      "inputs": [
        {
          "indexed": true,
          "internalType": "address",
          "name": "FarmAddress",
          "type": "address"
        },
        {
          "indexed": true,
          "internalType": "uint256",
          "name": "CreatedPotatoBatchId",
          "type": "uint256"
        }
      ],
      "name": "PotatoBatchAdded",
      "type": "event"
    },
    {
      "inputs": [
        {
          "components": [
            {
              "internalType": "enum FarmInterface.Size",
              "name": "size",
              "type": "uint8"
            },
            {
              "internalType": "enum FarmInterface.Shape",
              "name": "shape",
              "type": "uint8"
            },
            {
              "internalType": "enum FarmInterface.Shape",
              "name": "color",
              "type": "uint8"
            },
            {
              "internalType": "enum FarmInterface.ExternalQuality",
              "name": "externalQuality",
              "type": "uint8"
            },
            {
              "internalType": "enum FarmInterface.InternalQuality",
              "name": "internalQuality",
              "type": "uint8"
            },
            {
              "internalType": "enum FarmInterface.Weight",
              "name": "weight",
              "type": "uint8"
            }
          ],
          "internalType": "struct FarmInterface.BatchQuality",
          "name": "_bq",
          "type": "tuple"
        },
        {
          "internalType": "uint256",
          "name": "_oqc",
          "type": "uint256"
        },
        {
          "internalType": "uint256",
          "name": "_weight",
          "type": "uint256"
        }
      ],
      "name": "addPotatoBatchAtFarm",
      "outputs": [],
      "stateMutability": "nonpayable",
      "type": "function"
    },
    {
      "inputs": [],
      "name": "admin",
      "outputs": [
        {
          "internalType": "address",
          "name": "",
          "type": "address"
        }
      ],
      "stateMutability": "view",
      "type": "function"
    },
    {
      "inputs": [
        {
          "internalType": "uint256",
          "name": "_chipsPacketBatchId",
          "type": "uint256"
        },
        {
          "internalType": "address",
          "name": "_rs",
          "type": "address"
        },
        {
          "internalType": "uint256",
          "name": "_oqs",
          "type": "uint256"
        },
        {
          "internalType": "uint256",
          "name": "_ww",
          "type": "uint256"
        },
        {
          "internalType": "address",
          "name": "_logisticsAddr",
          "type": "address"
        }
      ],
      "name": "chipsPacketBatchDispatchedToRS",
      "outputs": [],
      "stateMutability": "nonpayable",
      "type": "function"
    },
    {
      "inputs": [],
      "name": "chipsPacketBatchId",
      "outputs": [
        {
          "internalType": "uint256",
          "name": "",
          "type": "uint256"
        }
      ],
      "stateMutability": "view",
      "type": "function"
    },
    {
      "inputs": [
        {
          "internalType": "uint256",
          "name": "",
          "type": "uint256"
        }
      ],
      "name": "chipsPacketBatchIdOf",
      "outputs": [
        {
          "internalType": "uint256",
          "name": "",
          "type": "uint256"
        }
      ],
      "stateMutability": "view",
      "type": "function"
    },
    {
      "inputs": [
        {
          "internalType": "uint256",
          "name": "",
          "type": "uint256"
        }
      ],
      "name": "chipsPacketBatchRelationsOf",
      "outputs": [
        {
          "internalType": "uint256",
          "name": "potatosRelativeId",
          "type": "uint256"
        },
        {
          "internalType": "address",
          "name": "retailStore",
          "type": "address"
        }
      ],
      "stateMutability": "view",
      "type": "function"
    },
    {
      "inputs": [],
      "name": "chipsPacketId",
      "outputs": [
        {
          "internalType": "uint256",
          "name": "",
          "type": "uint256"
        }
      ],
      "stateMutability": "view",
      "type": "function"
    },
    {
      "inputs": [
        {
          "internalType": "uint256",
          "name": "_chipsPacketBatchId",
          "type": "uint256"
        },
        {
          "internalType": "enum FactoryInterface.PackageSize",
          "name": "_packetSizeType",
          "type": "uint8"
        }
      ],
      "name": "chipsPacketSold",
      "outputs": [],
      "stateMutability": "nonpayable",
      "type": "function"
    },
    {
      "inputs": [
        {
          "internalType": "uint256",
          "name": "_chipsPacketBatchId",
          "type": "uint256"
        },
        {
          "internalType": "uint256",
          "name": "_oqs",
          "type": "uint256"
        },
        {
          "internalType": "uint256",
          "name": "_weight",
          "type": "uint256"
        }
      ],
      "name": "chipsPacketStoredAtRs",
      "outputs": [],
      "stateMutability": "nonpayable",
      "type": "function"
    },
    {
      "inputs": [
        {
          "components": [
            {
              "internalType": "uint256",
              "name": "potatoBatchId",
              "type": "uint256"
            },
            {
              "components": [
                {
                  "internalType": "enum FactoryInterface.Flavor",
                  "name": "flavor",
                  "type": "uint8"
                },
                {
                  "internalType": "enum FactoryInterface.Texture",
                  "name": "texture",
                  "type": "uint8"
                }
              ],
              "internalType": "struct FactoryInterface.ChipsDetail",
              "name": "chipsDetail",
              "type": "tuple"
            },
            {
              "components": [
                {
                  "internalType": "uint256",
                  "name": "cookingTemperature",
                  "type": "uint256"
                },
                {
                  "internalType": "enum FactoryInterface.Ingredient[]",
                  "name": "ingredients",
                  "type": "uint8[]"
                }
              ],
              "internalType": "struct FactoryInterface.ProcessDetails",
              "name": "processDetails",
              "type": "tuple"
            },
            {
              "components": [
                {
                  "internalType": "enum FactoryInterface.PackagingMaterial",
                  "name": "packagingMaterial",
                  "type": "uint8"
                },
                {
                  "internalType": "enum FactoryInterface.PackageSize",
                  "name": "packageSize",
                  "type": "uint8"
                }
              ],
              "internalType": "struct FactoryInterface.PackagingDetails",
              "name": "packagingDetails",
              "type": "tuple"
            },
            {
              "internalType": "uint256",
              "name": "totalPackets",
              "type": "uint256"
            },
            {
              "internalType": "uint256",
              "name": "totalWeight",
              "type": "uint256"
            },
            {
              "internalType": "uint256",
              "name": "productionDate",
              "type": "uint256"
            },
            {
              "internalType": "uint256",
              "name": "shelfLife",
              "type": "uint256"
            }
          ],
          "internalType": "struct FactoryInterface.ChipsPacketBatch",
          "name": "_details",
          "type": "tuple"
        }
      ],
      "name": "chipsPreparedAtFactory",
      "outputs": [],
      "stateMutability": "nonpayable",
      "type": "function"
    },
    {
      "inputs": [
        {
          "internalType": "uint256",
          "name": "_potatoBatchId",
          "type": "uint256"
        },
        {
          "internalType": "address",
          "name": "_factory",
          "type": "address"
        },
        {
          "internalType": "uint256",
          "name": "_oqs",
          "type": "uint256"
        },
        {
          "internalType": "uint256",
          "name": "_weight",
          "type": "uint256"
        },
        {
          "internalType": "address",
          "name": "_logisticsAddr",
          "type": "address"
        }
      ],
      "name": "dispatchPotatoBatchToFactory",
      "outputs": [],
      "stateMutability": "nonpayable",
      "type": "function"
    },
    {
      "inputs": [
        {
          "internalType": "uint256",
          "name": "_potatoBatchId",
          "type": "uint256"
        },
        {
          "internalType": "address",
          "name": "_localColloctor",
          "type": "address"
        },
        {
          "internalType": "uint256",
          "name": "_oqc",
          "type": "uint256"
        },
        {
          "internalType": "uint256",
          "name": "_weight",
          "type": "uint256"
        },
        {
          "internalType": "address",
          "name": "_logisticsAddr",
          "type": "address"
        }
      ],
      "name": "dispatchPotatoBatchToLC",
      "outputs": [],
      "stateMutability": "nonpayable",
      "type": "function"
    },
    {
      "inputs": [
        {
          "internalType": "uint256",
          "name": "",
          "type": "uint256"
        }
      ],
      "name": "potatBatchRelationOf",
      "outputs": [
        {
          "internalType": "address",
          "name": "farm",
          "type": "address"
        },
        {
          "internalType": "address",
          "name": "localCollector",
          "type": "address"
        },
        {
          "internalType": "address",
          "name": "factory",
          "type": "address"
        }
      ],
      "stateMutability": "view",
      "type": "function"
    },
    {
      "inputs": [],
      "name": "potatoBatchId",
      "outputs": [
        {
          "internalType": "uint256",
          "name": "",
          "type": "uint256"
        }
      ],
      "stateMutability": "view",
      "type": "function"
    },
    {
      "inputs": [
        {
          "internalType": "uint256",
          "name": "_potatoBatchId",
          "type": "uint256"
        },
        {
          "internalType": "uint256",
          "name": "_oqs",
          "type": "uint256"
        },
        {
          "internalType": "uint256",
          "name": "_weight",
          "type": "uint256"
        }
      ],
      "name": "potatoBatchStoredAtFactory",
      "outputs": [],
      "stateMutability": "nonpayable",
      "type": "function"
    },
    {
      "inputs": [
        {
          "internalType": "uint256",
          "name": "_potatoBatchId",
          "type": "uint256"
        },
        {
          "internalType": "uint256",
          "name": "_oqs",
          "type": "uint256"
        },
        {
          "internalType": "uint256",
          "name": "_weight",
          "type": "uint256"
        }
      ],
      "name": "potatoBatchStoredAtLC",
      "outputs": [],
      "stateMutability": "nonpayable",
      "type": "function"
    },
    {
      "inputs": [
        {
          "internalType": "uint256",
          "name": "_shipmentId",
          "type": "uint256"
        },
        {
          "internalType": "uint256",
          "name": "_status",
          "type": "uint256"
        }
      ],
      "name": "updateShipmentStatusInLogistics",
      "outputs": [],
      "stateMutability": "nonpayable",
      "type": "function"
    },
    {
      "inputs": [
        {
          "internalType": "contract SupplyLedgerRegistrar",
          "name": "_supplyLedgerRegistrar",
          "type": "address"
        }
      ],
      "name": "updateSupplyLedgerRegistar",
      "outputs": [],
      "stateMutability": "nonpayable",
      "type": "function"
    }
  ],
  "bytecode": "0x608060405260016000556001805560016002553480156200001f57600080fd5b50604051620028a1380380620028a1833981016040819052620000429162000071565b600680546001600160a01b039092166001600160a01b03199283161790556007805490911633179055620000a3565b6000602082840312156200008457600080fd5b81516001600160a01b03811681146200009c57600080fd5b9392505050565b6127ee80620000b36000396000f3fe608060405234801561001057600080fd5b50600436106101165760003560e01c8063703b6354116100a2578063e4f8f0d211610071578063e4f8f0d2146102a3578063eaf676f2146102b6578063ee179301146102c9578063f293c341146102dc578063f851a440146102ef57600080fd5b8063703b635414610227578063969c4dfd1461023a578063a068cc0c14610243578063ad344b8b1461025657600080fd5b8063369f5f63116100e9578063369f5f631461017f578063390b0d0d14610188578063522666271461019b5780635340b9cd1461020157806362f961d11461021457600080fd5b8063112e3d761461011b57806328468b40146101375780632fd744241461014c578063308adfe41461015f575b600080fd5b61012460005481565b6040519081526020015b60405180910390f35b61014a610145366004611edb565b61031a565b005b61014a61015a366004612002565b610822565b61012461016d3660046120b1565b60056020526000908152604090205481565b61012460015481565b61014a6101963660046120ca565b610a1c565b6101d76101a93660046120b1565b6003602052600090815260409020805460018201546002909201546001600160a01b03918216928216911683565b604080516001600160a01b039485168152928416602084015292169181019190915260600161012e565b61014a61020f366004611edb565b610aa2565b61014a6102223660046120ee565b610efc565b61014a6102353660046120ee565b6110fd565b61012460025481565b61014a610251366004612260565b6112c8565b6102866102643660046120b1565b600460205260009081526040902080546001909101546001600160a01b031682565b604080519283526001600160a01b0390911660208301520161012e565b61014a6102b1366004612329565b6114ea565b61014a6102c43660046120ee565b61172e565b61014a6102d7366004612359565b6118f9565b61014a6102ea366004611edb565b611a87565b600754610302906001600160a01b031681565b6040516001600160a01b03909116815260200161012e565b600654604051633cb0dd5b60e01b81526001916001600160a01b031690633cb0dd5b9061034d9084903390600401612391565b604080518083038186803b15801561036457600080fd5b505afa158015610378573d6000803e3d6000fd5b505050506040513d601f19601f8201168201806040525081019061039c91906123bd565b602001516103c55760405162461bcd60e51b81526004016103bc90612421565b60405180910390fd5b856000811180156103d7575060005481105b6103f35760405162461bcd60e51b81526004016103bc90612464565b6000878152600360205260409020600101546001600160a01b0316331461042c5760405162461bcd60e51b81526004016103bc9061249b565b60008781526003602052604080822060020180546001600160a01b0319166001600160a01b038a8116919091179091556006549151633cb0dd5b60e01b8152911690633cb0dd5b90610485906001903390600401612391565b604080518083038186803b15801561049c57600080fd5b505afa1580156104b0573d6000803e3d6000fd5b505050506040513d601f19601f820116820180604052508101906104d491906123bd565b51600654604051633cb0dd5b60e01b81529192506000916001600160a01b0390911690633cb0dd5b9061050d9060049089908201612391565b604080518083038186803b15801561052457600080fd5b505afa158015610538573d6000803e3d6000fd5b505050506040513d601f19601f8201168201806040525081019061055c91906123bd565b51600654604051633cb0dd5b60e01b81529192506000916001600160a01b038085169263573f6063928e9290911690633cb0dd5b906105a2906001903390600401612391565b604080518083038186803b1580156105b957600080fd5b505afa1580156105cd573d6000803e3d6000fd5b505050506040513d601f19601f820116820180604052508101906105f191906123bd565b60000151600660009054906101000a90046001600160a01b03166001600160a01b0316633cb0dd5b60028f6040518363ffffffff1660e01b8152600401610639929190612391565b604080518083038186803b15801561065057600080fd5b505afa158015610664573d6000803e3d6000fd5b505050506040513d601f19601f8201168201806040525081019061068891906123bd565b5160405160e085901b6001600160e01b031916815260048101939093526001600160a01b039182166024840152166044820152606401602060405180830381600087803b1580156106d857600080fd5b505af11580156106ec573d6000803e3d6000fd5b505050506040513d601f19601f8201168201806040525081019061071091906124e5565b600654604051633cb0dd5b60e01b81529192506001600160a01b0380861692625c5063928e928692911690633cb0dd5b90610751906004908e908201612391565b604080518083038186803b15801561076857600080fd5b505afa15801561077c573d6000803e3d6000fd5b505050506040513d601f19601f820116820180604052508101906107a091906123bd565b5160405160e085901b6001600160e01b0319168152600481019390935260248301919091526001600160a01b03166044820152606481018b9052608481018a905260a401600060405180830381600087803b1580156107fe57600080fd5b505af1158015610812573d6000803e3d6000fd5b5050505050505050505050505050565b600654604051633cb0dd5b60e01b81526000916001600160a01b031690633cb0dd5b906108559084903390600401612391565b604080518083038186803b15801561086c57600080fd5b505afa158015610880573d6000803e3d6000fd5b505050506040513d601f19601f820116820180604052508101906108a491906123bd565b602001516108c45760405162461bcd60e51b81526004016103bc90612421565b600080548082526003602052604080832080546001600160a01b031916339081179091556006549151633cb0dd5b60e01b81529293926001600160a01b039290921691633cb0dd5b9161091c91859190600401612391565b604080518083038186803b15801561093357600080fd5b505afa158015610947573d6000803e3d6000fd5b505050506040513d601f19601f8201168201806040525081019061096b91906123bd565b51604051633ac765b960e11b81529091506001600160a01b0382169063758ecb72906109a19085908a9089908b9060040161251e565b600060405180830381600087803b1580156109bb57600080fd5b505af11580156109cf573d6000803e3d6000fd5b50506040518492503391507f6b26c382030ab56257d9e5f81cfea5846b5aa86ecbc935f2562beedafe2002d090600090a3600080549080610a0f836125b3565b9190505550505050505050565b6007546001600160a01b03163314610a805760405162461bcd60e51b815260206004820152602160248201527f4f6e6c792061646d696e2063616e2063616c6c20746869732066756e6374696f6044820152603760f91b60648201526084016103bc565b600680546001600160a01b0319166001600160a01b0392909216919091179055565b600654604051633cb0dd5b60e01b81526000916001600160a01b031690633cb0dd5b90610ad59084903390600401612391565b604080518083038186803b158015610aec57600080fd5b505afa158015610b00573d6000803e3d6000fd5b505050506040513d601f19601f82011682018060405250810190610b2491906123bd565b60200151610b445760405162461bcd60e51b81526004016103bc90612421565b85600081118015610b56575060005481105b610b725760405162461bcd60e51b81526004016103bc90612464565b6000878152600360205260409020546001600160a01b03163314610bd85760405162461bcd60e51b815260206004820152601f60248201527f4f6e6c7920746865204f726967696e616c204661726d2063616e2063616c6c0060448201526064016103bc565b60008781526003602052604080822060010180546001600160a01b0319166001600160a01b038a8116919091179091556006549151633cb0dd5b60e01b8152911690633cb0dd5b90610c309060049088908201612391565b604080518083038186803b158015610c4757600080fd5b505afa158015610c5b573d6000803e3d6000fd5b505050506040513d601f19601f82011682018060405250810190610c7f91906123bd565b51600654604051633cb0dd5b60e01b81529192506000916001600160a01b038085169263573f6063928d9290911690633cb0dd5b90610cc49087903390600401612391565b604080518083038186803b158015610cdb57600080fd5b505afa158015610cef573d6000803e3d6000fd5b505050506040513d601f19601f82011682018060405250810190610d1391906123bd565b60000151600660009054906101000a90046001600160a01b03166001600160a01b0316633cb0dd5b60018e6040518363ffffffff1660e01b8152600401610d5b929190612391565b604080518083038186803b158015610d7257600080fd5b505afa158015610d86573d6000803e3d6000fd5b505050506040513d601f19601f82011682018060405250810190610daa91906123bd565b5160405160e085901b6001600160e01b031916815260048101939093526001600160a01b039182166024840152166044820152606401602060405180830381600087803b158015610dfa57600080fd5b505af1158015610e0e573d6000803e3d6000fd5b505050506040513d601f19601f82011682018060405250810190610e3291906124e5565b600654604051633cb0dd5b60e01b81529192506000916001600160a01b0390911690633cb0dd5b90610e6a9084903390600401612391565b604080518083038186803b158015610e8157600080fd5b505afa158015610e95573d6000803e3d6000fd5b505050506040513d601f19601f82011682018060405250810190610eb991906123bd565b51600654604051633cb0dd5b60e01b81529192506001600160a01b03808416926334acf9d3928e928792911690633cb0dd5b90610751906004908e908201612391565b600654604051633cb0dd5b60e01b81526003916001600160a01b031690633cb0dd5b90610f2f9084903390600401612391565b604080518083038186803b158015610f4657600080fd5b505afa158015610f5a573d6000803e3d6000fd5b505050506040513d601f19601f82011682018060405250810190610f7e91906123bd565b60200151610f9e5760405162461bcd60e51b81526004016103bc90612421565b83600081118015610fb0575060015481105b610fcc5760405162461bcd60e51b81526004016103bc90612464565b6000858152600460205260409020600101546001600160a01b031633146110055760405162461bcd60e51b81526004016103bc906125dc565b600654604051633cb0dd5b60e01b81526000916001600160a01b031690633cb0dd5b90611039906003903390600401612391565b604080518083038186803b15801561105057600080fd5b505afa158015611064573d6000803e3d6000fd5b505050506040513d601f19601f8201168201806040525081019061108891906123bd565b51604051635c7867c360e01b81526004810188905260248101869052604481018790529091506001600160a01b03821690635c7867c3906064015b600060405180830381600087803b1580156110dd57600080fd5b505af11580156110f1573d6000803e3d6000fd5b50505050505050505050565b600654604051633cb0dd5b60e01b81526001916001600160a01b031690633cb0dd5b906111309084903390600401612391565b604080518083038186803b15801561114757600080fd5b505afa15801561115b573d6000803e3d6000fd5b505050506040513d601f19601f8201168201806040525081019061117f91906123bd565b6020015161119f5760405162461bcd60e51b81526004016103bc90612421565b836000811180156111b1575060005481105b6111cd5760405162461bcd60e51b81526004016103bc90612464565b6000858152600360205260409020600101546001600160a01b031633146112065760405162461bcd60e51b81526004016103bc9061249b565b600654604051633cb0dd5b60e01b81526000916001600160a01b031690633cb0dd5b9061123a906001903390600401612391565b604080518083038186803b15801561125157600080fd5b505afa158015611265573d6000803e3d6000fd5b505050506040513d601f19601f8201168201806040525081019061128991906123bd565b51604051631c0ed8d560e21b81526004810188905260248101879052604481018690529091506001600160a01b0382169063703b6354906064016110c3565b600654604051633cb0dd5b60e01b81526002916001600160a01b031690633cb0dd5b906112fb9084903390600401612391565b604080518083038186803b15801561131257600080fd5b505afa158015611326573d6000803e3d6000fd5b505050506040513d601f19601f8201168201806040525081019061134a91906123bd565b6020015161136a5760405162461bcd60e51b81526004016103bc90612421565b81516000908152600360205260409020600201546001600160a01b031633146113a55760405162461bcd60e51b81526004016103bc90612623565b600654604051633cb0dd5b60e01b81526000916001600160a01b031690633cb0dd5b906113d9906002903390600401612391565b604080518083038186803b1580156113f057600080fd5b505afa158015611404573d6000803e3d6000fd5b505050506040513d601f19601f8201168201806040525081019061142891906123bd565b51600154604051631676146560e21b8152919250906001600160a01b038316906359d851949061145e90849088906004016126f2565b600060405180830381600087803b15801561147857600080fd5b505af115801561148c573d6000803e3d6000fd5b505085516000848152600460205260408082209290925590518493503392507f386ad43b5d240eecb1c7147f5be9b31100c1675d4d978709206dcc8243ffd2179190a3600180549060006114df836125b3565b919050555050505050565b600654604051633cb0dd5b60e01b81526003916001600160a01b031690633cb0dd5b9061151d9084903390600401612391565b604080518083038186803b15801561153457600080fd5b505afa158015611548573d6000803e3d6000fd5b505050506040513d601f19601f8201168201806040525081019061156c91906123bd565b6020015161158c5760405162461bcd60e51b81526004016103bc90612421565b8260008111801561159e575060015481105b6115ba5760405162461bcd60e51b81526004016103bc90612464565b6000848152600460205260409020600101546001600160a01b031633146115f35760405162461bcd60e51b81526004016103bc906125dc565b600654604051633cb0dd5b60e01b81526000916001600160a01b031690633cb0dd5b90611627906003903390600401612391565b604080518083038186803b15801561163e57600080fd5b505afa158015611652573d6000803e3d6000fd5b505050506040513d601f19601f8201168201806040525081019061167691906123bd565b516002546000818152600560205260409081902088905551631ff210b760e11b8152919250906001600160a01b03831690633fe4216e906116bf9084908a908a90600401612793565b600060405180830381600087803b1580156116d957600080fd5b505af11580156116ed573d6000803e3d6000fd5b50506040518392503391507f16f969c15ae152eb608de1eac8c2bc2c8cb9b01467675610f6d6da4ed810d55090600090a360028054906000610a0f836125b3565b600654604051633cb0dd5b60e01b81526002916001600160a01b031690633cb0dd5b906117619084903390600401612391565b604080518083038186803b15801561177857600080fd5b505afa15801561178c573d6000803e3d6000fd5b505050506040513d601f19601f820116820180604052508101906117b091906123bd565b602001516117d05760405162461bcd60e51b81526004016103bc90612421565b836000811180156117e2575060005481105b6117fe5760405162461bcd60e51b81526004016103bc90612464565b6000858152600360205260409020600201546001600160a01b031633146118375760405162461bcd60e51b81526004016103bc90612623565b600654604051633cb0dd5b60e01b81526000916001600160a01b031690633cb0dd5b9061186b906002903390600401612391565b604080518083038186803b15801561188257600080fd5b505afa158015611896573d6000803e3d6000fd5b505050506040513d601f19601f820116820180604052508101906118ba91906123bd565b5160405163757b3b7960e11b81526004810188905260248101879052604481018690529091506001600160a01b0382169063eaf676f2906064016110c3565b600654604051633cb0dd5b60e01b81526004916001600160a01b031690633cb0dd5b9061192b90849033908201612391565b604080518083038186803b15801561194257600080fd5b505afa158015611956573d6000803e3d6000fd5b505050506040513d601f19601f8201168201806040525081019061197a91906123bd565b6020015161199a5760405162461bcd60e51b81526004016103bc90612421565b600654604051633cb0dd5b60e01b81526000916001600160a01b031690633cb0dd5b906119cd9060049033908201612391565b604080518083038186803b1580156119e457600080fd5b505afa1580156119f8573d6000803e3d6000fd5b505050506040513d601f19601f82011682018060405250810190611a1c91906123bd565b516040516319adff9560e01b815260048101869052602481018590529091506001600160a01b038216906319adff9590604401600060405180830381600087803b158015611a6957600080fd5b505af1158015611a7d573d6000803e3d6000fd5b5050505050505050565b600654604051633cb0dd5b60e01b81526002916001600160a01b031690633cb0dd5b90611aba9084903390600401612391565b604080518083038186803b158015611ad157600080fd5b505afa158015611ae5573d6000803e3d6000fd5b505050506040513d601f19601f82011682018060405250810190611b0991906123bd565b60200151611b295760405162461bcd60e51b81526004016103bc90612421565b85600081118015611b3b575060015481105b611b575760405162461bcd60e51b81526004016103bc90612464565b600087815260046020908152604080832054835260039091529020600201546001600160a01b03163314611b9d5760405162461bcd60e51b81526004016103bc90612623565b600087815260046020819052604080832060010180546001600160a01b0319166001600160a01b038b8116919091179091556006549151633cb0dd5b60e01b8152911691633cb0dd5b91611bf5919088908201612391565b604080518083038186803b158015611c0c57600080fd5b505afa158015611c20573d6000803e3d6000fd5b505050506040513d601f19601f82011682018060405250810190611c4491906123bd565b51600654604051633cb0dd5b60e01b81529192506000916001600160a01b038085169263573f6063928d9290911690633cb0dd5b90611c8a906002903390600401612391565b604080518083038186803b158015611ca157600080fd5b505afa158015611cb5573d6000803e3d6000fd5b505050506040513d601f19601f82011682018060405250810190611cd991906123bd565b60000151600660009054906101000a90046001600160a01b03166001600160a01b0316633cb0dd5b60038e6040518363ffffffff1660e01b8152600401611d21929190612391565b604080518083038186803b158015611d3857600080fd5b505afa158015611d4c573d6000803e3d6000fd5b505050506040513d601f19601f82011682018060405250810190611d7091906123bd565b5160405160e085901b6001600160e01b031916815260048101939093526001600160a01b039182166024840152166044820152606401602060405180830381600087803b158015611dc057600080fd5b505af1158015611dd4573d6000803e3d6000fd5b505050506040513d601f19601f82011682018060405250810190611df891906124e5565b600654604051633cb0dd5b60e01b81529192506000916001600160a01b0390911690633cb0dd5b90611e31906002903390600401612391565b604080518083038186803b158015611e4857600080fd5b505afa158015611e5c573d6000803e3d6000fd5b505050506040513d601f19601f82011682018060405250810190611e8091906123bd565b51600654604051633cb0dd5b60e01b81529192506001600160a01b038084169263ccd9f244928e928792911690633cb0dd5b90610751906004908e908201612391565b6001600160a01b0381168114611ed857600080fd5b50565b600080600080600060a08688031215611ef357600080fd5b853594506020860135611f0581611ec3565b935060408601359250606086013591506080860135611f2381611ec3565b809150509295509295909350565b634e487b7160e01b600052604160045260246000fd5b60405160c0810167ffffffffffffffff81118282101715611f6a57611f6a611f31565b60405290565b6040805190810167ffffffffffffffff81118282101715611f6a57611f6a611f31565b604051610100810167ffffffffffffffff81118282101715611f6a57611f6a611f31565b604051601f8201601f1916810167ffffffffffffffff81118282101715611fe057611fe0611f31565b604052919050565b60038110611ed857600080fd5b60028110611ed857600080fd5b600080600083850361010081121561201957600080fd5b60c081121561202757600080fd5b50612030611f47565b843561203b81611fe8565b8152602085013561204b81611ff5565b6020820152604085013561205e81611ff5565b6040820152606085013561207181611fe8565b6060820152608085013561208481611fe8565b608082015260a085013561209781611fe8565b60a08201529560c0850135955060e0909401359392505050565b6000602082840312156120c357600080fd5b5035919050565b6000602082840312156120dc57600080fd5b81356120e781611ec3565b9392505050565b60008060006060848603121561210357600080fd5b505081359360208301359350604090920135919050565b60006040828403121561212c57600080fd5b612134611f70565b9050813561214181611fe8565b8152602082013561215181611ff5565b602082015292915050565b60006040828403121561216e57600080fd5b612176611f70565b90508135815260208083013567ffffffffffffffff8082111561219857600080fd5b818501915085601f8301126121ac57600080fd5b8135818111156121be576121be611f31565b8060051b91506121cf848301611fb7565b81815291830184019184810190888411156121e957600080fd5b938501935b838510156122185784359250600883106122085760008081fd5b82825293850193908501906121ee565b808688015250505050505092915050565b60006040828403121561223b57600080fd5b612243611f70565b9050813561225081611ff5565b8152602082013561215181611fe8565b60006020828403121561227257600080fd5b813567ffffffffffffffff8082111561228a57600080fd5b90830190610140828603121561229f57600080fd5b6122a7611f93565b823581526122b8866020850161211a565b60208201526060830135828111156122cf57600080fd5b6122db8782860161215c565b6040830152506122ee8660808501612229565b606082015260c0830135608082015260e083013560a082015261010083013560c082015261012083013560e082015280935050505092915050565b6000806040838503121561233c57600080fd5b82359150602083013561234e81611fe8565b809150509250929050565b6000806040838503121561236c57600080fd5b50508035926020909101359150565b634e487b7160e01b600052602160045260246000fd5b60408101600584106123a5576123a561237b565b9281526001600160a01b039190911660209091015290565b6000604082840312156123cf57600080fd5b6040516040810181811067ffffffffffffffff821117156123f2576123f2611f31565b604052825161240081611ec3565b81526020830151801515811461241557600080fd5b60208201529392505050565b60208082526023908201527f4f6e6c7920746865207265737065637469766520456e746974792063616e2063604082015262185b1b60ea1b606082015260800190565b6020808252601b908201527f4e6f7420612076616c696420506f7461746f2042617463682049640000000000604082015260600190565b6020808252602a908201527f4f6e6c7920746865204f726967696e616c204c6f63616c20436f6c6c6563746f6040820152691c8818d85b8818d85b1b60b21b606082015260800190565b6000602082840312156124f757600080fd5b5051919050565b60038110611ed857611ed861237b565b60028110611ed857611ed861237b565b8481528351610120820190612532816124fe565b8060208401525060208501516125478161250e565b80604084015250604085015161255c8161250e565b806060840152506060850151612571816124fe565b806080840152506080850151612586816124fe565b8060a08401525060a085015161259b816124fe565b60c083015260e0820193909352610100015292915050565b60006000198214156125d557634e487b7160e01b600052601160045260246000fd5b5060010190565b60208082526027908201527f4f6e6c7920746865204f726967696e616c2052657461696c2053746f72652063604082015266185b8818d85b1b60ca1b606082015260800190565b60208082526022908201527f4f6e6c7920746865204f726967696e616c20466163746f72792063616e2063616040820152611b1b60f21b606082015260800190565b600060408301825184526020808401516040828701528281518085526060880191508383019450600092505b808310156126c1578451600881106126ab576126ab61237b565b8252938301936001929092019190830190612691565b509695505050505050565b80516126d78161250e565b825260208101516126e7816124fe565b806020840152505050565b8281526040602082015281516040820152600060208301518051612715816124fe565b6060840152602001516127278161250e565b6080830152604083015161014060a08401819052612749610180850183612665565b9150606085015161275d60c08601826126cc565b50608085015161010085015260a085015161012085015260c08501519084015260e0909301516101609092019190915250919050565b83815260208101839052606081016127aa836124fe565b82604083015294935050505056fea264697066735822122090e27e6c6eaa1e7dd993d548748d2671c67e8f606bbc5e13382bb63675a6a37364736f6c63430008090033",
  "linkReferences": {},
  "deployedLinkReferences": {}
}