{
  "_format": "hh-sol-artifact-1",
  "contractName": "SupplyLedgerRegistrar",
  "sourceName": "contracts/SupplyLedgerRegistrar.sol",
  "abi": [
    {
      "inputs": [
        {
          "internalType": "address",
          "name": "_sl",
          "type": "address"
        }
      ],
      "stateMutability": "nonpayable",
      "type": "constructor"
    },
    {
      "inputs": [],
      "name": "admin",
      "outputs": [
        {
          "internalType": "address",
          "name": "",
          "type": "address"
        }
      ],
      "stateMutability": "view",
      "type": "function"
    },
    {
      "inputs": [
        {
          "internalType": "enum SupplyLedgerRegistrar.EntityType",
          "name": "",
          "type": "uint8"
        },
        {
          "internalType": "address",
          "name": "",
          "type": "address"
        }
      ],
      "name": "entityDetails",
      "outputs": [
        {
          "internalType": "address",
          "name": "contractAddr",
          "type": "address"
        },
        {
          "internalType": "bool",
          "name": "status",
          "type": "bool"
        }
      ],
      "stateMutability": "view",
      "type": "function"
    },
    {
      "inputs": [
        {
          "internalType": "enum SupplyLedgerRegistrar.EntityType",
          "name": "_et",
          "type": "uint8"
        },
        {
          "internalType": "address",
          "name": "_eAddress",
          "type": "address"
        }
      ],
      "name": "getEntityDetails",
      "outputs": [
        {
          "components": [
            {
              "internalType": "address",
              "name": "contractAddr",
              "type": "address"
            },
            {
              "internalType": "bool",
              "name": "status",
              "type": "bool"
            }
          ],
          "internalType": "struct SupplyLedgerRegistrar.Entity",
          "name": "",
          "type": "tuple"
        }
      ],
      "stateMutability": "view",
      "type": "function"
    },
    {
      "inputs": [
        {
          "internalType": "enum SupplyLedgerRegistrar.EntityType",
          "name": "_et",
          "type": "uint8"
        },
        {
          "internalType": "address",
          "name": "_admin",
          "type": "address"
        },
        {
          "internalType": "uint256",
          "name": "_maxCapacity",
          "type": "uint256"
        },
        {
          "internalType": "uint256",
          "name": "_maxChipsPacketBatchCapacity",
          "type": "uint256"
        }
      ],
      "name": "registerEntity",
      "outputs": [],
      "stateMutability": "nonpayable",
      "type": "function"
    },
    {
      "inputs": [],
      "name": "supplyLedgerContractAddr",
      "outputs": [
        {
          "internalType": "address",
          "name": "",
          "type": "address"
        }
      ],
      "stateMutability": "view",
      "type": "function"
    }
  ],
  "bytecode": "0x608060405234801561001057600080fd5b50604051614c34380380614c3483398101604081905261002f91610062565b60018054336001600160a01b031991821617909155600280549091166001600160a01b0392909216919091179055610092565b60006020828403121561007457600080fd5b81516001600160a01b038116811461008b57600080fd5b9392505050565b614b93806100a16000396000f3fe608060405234801561001057600080fd5b50600436106100575760003560e01c806301b1bfa21461005c5780633cb0dd5b146100bd5780633ff6c661146100f6578063d28ec9801461010b578063f851a44014610136575b600080fd5b61009961006a3660046105b8565b60006020818152928152604080822090935290815220546001600160a01b03811690600160a01b900460ff1682565b604080516001600160a01b0390931683529015156020830152015b60405180910390f35b6100d06100cb3660046105b8565b610149565b6040805182516001600160a01b03168152602092830151151592810192909252016100b4565b6101096101043660046105eb565b6101cf565b005b60025461011e906001600160a01b031681565b6040516001600160a01b0390911681526020016100b4565b60015461011e906001600160a01b031681565b60408051808201909152600080825260208201526000808460048111156101725761017261062d565b60048111156101835761018361062d565b8152602080820192909252604090810160009081206001600160a01b03958616825283528190208151808301909252549384168152600160a01b90930460ff1615159083015250919050565b6001546001600160a01b031633146102385760405162461bcd60e51b815260206004820152602160248201527f4f6e6c792061646d696e2063616e2063616c6c20746869732066756e6374696f6044820152603760f91b60648201526084015b60405180910390fd5b60008085600481111561024d5761024d61062d565b600481111561025e5761025e61062d565b815260208082019290925260409081016000908120338252909252902054600160a01b900460ff16156102e25760405162461bcd60e51b815260206004820152602660248201527f456e7469747920616c72656164792072656769737472656420666f722074686960448201526573207479706560d01b606482015260840161022f565b6000808560048111156102f7576102f761062d565b1415610362576002546040516000916001600160a01b0316908690869061031d90610547565b6001600160a01b03938416815292909116602083015260408201526060015b604051809103906000f080158015610358573d6000803e3d6000fd5b5091506104b39050565b60018560048111156103765761037661062d565b141561039c576002546040516000916001600160a01b0316908690869061031d90610555565b60028560048111156103b0576103b061062d565b1415610400576002546040516000916001600160a01b0316908690869086906103d890610563565b6001600160a01b0394851681529390921660208401526040830152606082015260800161033c565b60038560048111156104145761041461062d565b141561043a576002546040516000916001600160a01b0316908690869061031d90610571565b600485600481111561044e5761044e61062d565b14156104b3576002546040516000916001600160a01b031690869086906104749061057f565b6001600160a01b0393841681529290911660208301526040820152606001604051809103906000f0801580156104ae573d6000803e3d6000fd5b509150505b604080518082019091526001600160a01b0382168152600160208201526000808760048111156104e5576104e561062d565b60048111156104f6576104f661062d565b8152602080820192909252604090810160009081206001600160a01b0398891682528352208251815493909201511515600160a01b026001600160a81b031990931691909616171790935550505050565b610a91806200064483390190565b6106cb80620010d583390190565b6111ba80620017a083390190565b61089c806200295a83390190565b61196880620031f683390190565b80356005811061059c57600080fd5b919050565b80356001600160a01b038116811461059c57600080fd5b600080604083850312156105cb57600080fd5b6105d48361058d565b91506105e2602084016105a1565b90509250929050565b6000806000806080858703121561060157600080fd5b61060a8561058d565b9350610618602086016105a1565b93969395505050506040820135916060013590565b634e487b7160e01b600052602160045260246000fdfe608060405234801561001057600080fd5b50604051610a91380380610a9183398101604081905261002f91610083565b600080546001600160a01b039384166001600160a01b03199182161790915560018054939094169216919091179091556002556100bf565b80516001600160a01b038116811461007e57600080fd5b919050565b60008060006060848603121561009857600080fd5b6100a184610067565b92506100af60208501610067565b9150604084015190509250925092565b6109c3806100ce6000396000f3fe608060405234801561001057600080fd5b506004361061007d5760003560e01c80633b3c461f1161005b5780633b3c461f146100de57806359b6a0c914610105578063758ecb721461010e578063f851a4401461012157600080fd5b80632b20e39714610082578063345210dd146100b257806334acf9d3146100c9575b600080fd5b600154610095906001600160a01b031681565b6040516001600160a01b0390911681526020015b60405180910390f35b6100bb60035481565b6040519081526020016100a9565b6100dc6100d73660046106dd565b610134565b005b6100f16100ec366004610732565b6102c2565b6040516100a9989796959493929190610788565b6100bb60025481565b6100dc61011c36600461086c565b610456565b600054610095906001600160a01b031681565b6001546001600160a01b0316331461016d5760405162461bcd60e51b815260206004820152600060248201526044015b60405180910390fd5b80600081116101b55760405162461bcd60e51b81526020600482015260146024820152735765696768742063616e2774206265207a65726f60601b6044820152606401610164565b8060035410156102005760405162461bcd60e51b815260206004820152601660248201527524b739bab33334b1b4b2b73a1031b0b830b1b4ba3c9760511b6044820152606401610164565b8060036000828254610212919061095e565b9091555050600086815260046020526040902060050154156102765760405162461bcd60e51b815260206004820152601f60248201527f506f7461746f20626174636820616c72656164792044697370617463686564006044820152606401610164565b506000948552600460208190526040909520948501939093556007840180546001600160a01b0319166001600160a01b0393909316929092179091556005830191909155600690910155565b60046020526000908152604090819020815160c0810190925280549091908290829060ff1660028111156102f8576102f861074b565b60028111156103095761030961074b565b81528154602090910190610100900460ff16600181111561032c5761032c61074b565b600181111561033d5761033d61074b565b8152815460209091019062010000900460ff1660018111156103615761036161074b565b60018111156103725761037261074b565b815281546020909101906301000000900460ff1660028111156103975761039761074b565b60028111156103a8576103a861074b565b81528154602090910190640100000000900460ff1660028111156103ce576103ce61074b565b60028111156103df576103df61074b565b8152815460209091019065010000000000900460ff1660028111156104065761040661074b565b60028111156104175761041761074b565b9052506001820154600283015460038401546004850154600586015460068701546007909701549596949593949293919290916001600160a01b031688565b6001546001600160a01b0316331461048a5760405162461bcd60e51b81526020600482015260006024820152604401610164565b81600081116104d25760405162461bcd60e51b81526020600482015260146024820152735765696768742063616e2774206265207a65726f60601b6044820152606401610164565b600254816003546104e39190610975565b111561052a5760405162461bcd60e51b815260206004820152601660248201527526b0bc1031b0b830b1b4ba3c9032bc31b2b2b232b21760511b6044820152606401610164565b806003600082825461053c9190610975565b9091555050600085815260046020526040902060020154156105a05760405162461bcd60e51b815260206004820152601b60248201527f506f7461746f20626174636820616c72656164792073746f72656400000000006044820152606401610164565b60008581526004602052604090208451815486929190829060ff191660018360028111156105d0576105d061074b565b021790555060208201518154829061ff0019166101008360018111156105f8576105f861074b565b021790555060408201518154829062ff00001916620100008360018111156106225761062261074b565b021790555060608201518154829063ff0000001916630100000083600281111561064e5761064e61074b565b021790555060808201518154829064ff00000000191664010000000083600281111561067c5761067c61074b565b021790555060a08201518154829065ff00000000001916650100000000008360028111156106ac576106ac61074b565b0217905550505060009485525060046020526040909320600281019190915560018101929092555042600390910155565b600080600080600060a086880312156106f557600080fd5b853594506020860135935060408601356001600160a01b038116811461071a57600080fd5b94979396509394606081013594506080013592915050565b60006020828403121561074457600080fd5b5035919050565b634e487b7160e01b600052602160045260246000fd5b600381106107715761077161074b565b50565b600281106107845761078461074b565b9052565b88516101a082019061079981610761565b8083525060208a01516107af6020840182610774565b5060408a01516107c26040840182610774565b5060608a01516107d181610761565b606083015260808a01516107e481610761565b608083015260a08a01516107f781610761565b8060a0840152508860c08301528760e08301528661010083015285610120830152846101408301528361016083015261083c6101808301846001600160a01b03169052565b9998505050505050505050565b80356003811061085857600080fd5b919050565b80356002811061085857600080fd5b60008060008084860361012081121561088457600080fd5b8535945060c0601f198201121561089a57600080fd5b5060405160c0810181811067ffffffffffffffff821117156108cc57634e487b7160e01b600052604160045260246000fd5b6040526108db60208701610849565b81526108e96040870161085d565b60208201526108fa6060870161085d565b604082015261090b60808701610849565b606082015261091c60a08701610849565b608082015261092d60c08701610849565b60a0820152939693955050505060e082013591610100013590565b634e487b7160e01b600052601160045260246000fd5b60008282101561097057610970610948565b500390565b6000821982111561098857610988610948565b50019056fea26469706673582212206ddf93a94f8ad8301d17859e2dc00ea6b23de0605dd1e152c9c89390cbd06f5e64736f6c63430008090033608060405234801561001057600080fd5b506040516106cb3803806106cb83398101604081905261002f91610083565b600080546001600160a01b039384166001600160a01b03199182161790915560018054939094169216919091179091556002556100bf565b80516001600160a01b038116811461007e57600080fd5b919050565b60008060006060848603121561009857600080fd5b6100a184610067565b92506100af60208501610067565b9150604084015190509250925092565b6105fd806100ce6000396000f3fe608060405234801561001057600080fd5b50600436106100925760003560e01c806359b6a0c91161006657806359b6a0c91461016a578063703b635414610173578063d8319b4e14610186578063f66874b7146101a6578063f851a440146101ee57600080fd5b80625c5063146100975780632b20e397146100ac578063345210dd146100dc578063453363b5146100f3575b600080fd5b6100aa6100a53660046104c6565b610201565b005b6001546100bf906001600160a01b031681565b6040516001600160a01b0390911681526020015b60405180910390f35b6100e560035481565b6040519081526020016100d3565b61013a61010136600461051b565b6005602052600090815260409020805460018201546002830154600384015460049094015492936001600160a01b039092169290919085565b604080519586526001600160a01b039094166020860152928401919091526060830152608082015260a0016100d3565b6100e560025481565b6100aa610181366004610534565b610388565b6100aa610194366004610560565b60009182526004602052604090912055565b61013a6101b436600461051b565b60046020819052600091825260409091208054600182015460028301546003840154939094015491936001600160a01b0390911692909185565b6000546100bf906001600160a01b031681565b806000811161024e5760405162461bcd60e51b81526020600482015260146024820152735765696768742063616e2774206265207a65726f60601b60448201526064015b60405180910390fd5b8060035410156102995760405162461bcd60e51b815260206004820152601660248201527524b739bab33334b1b4b2b73a1031b0b830b1b4ba3c9760511b6044820152606401610245565b80600360008282546102ab9190610598565b90915550506000868152600560205260409020600201541561030f5760405162461bcd60e51b815260206004820152601f60248201527f506f7461746f20626174636820616c72656164792044697370617463686564006044820152606401610245565b506040805160a0810182529485526001600160a01b03938416602080870191825286830193845260608701948552426080880190815260009889526005909152919096209451855594516001850180546001600160a01b0319169190941617909255905160028301555160038201559051600490910155565b80600081116103d05760405162461bcd60e51b81526020600482015260146024820152735765696768742063616e2774206265207a65726f60601b6044820152606401610245565b600254816003546103e191906105af565b11156104285760405162461bcd60e51b815260206004820152601660248201527526b0bc1031b0b830b1b4ba3c9032bc31b2b2b232b21760511b6044820152606401610245565b806003600082825461043a91906105af565b90915550506000848152600460205260409020600201541561049e5760405162461bcd60e51b815260206004820152601b60248201527f506f7461746f20626174636820616c72656164792073746f72656400000000006044820152606401610245565b5060009283526004602081905260409093206002810191909155600381019190915542910155565b600080600080600060a086880312156104de57600080fd5b853594506020860135935060408601356001600160a01b038116811461050357600080fd5b94979396509394606081013594506080013592915050565b60006020828403121561052d57600080fd5b5035919050565b60008060006060848603121561054957600080fd5b505081359360208301359350604090920135919050565b6000806040838503121561057357600080fd5b50508035926020909101359150565b634e487b7160e01b600052601160045260246000fd5b6000828210156105aa576105aa610582565b500390565b600082198211156105c2576105c2610582565b50019056fea26469706673582212208c034c8ff6e5f143c04ddb503b2102ac901e558e44f03e09d26cf214ed7e43f164736f6c63430008090033608060405234801561001057600080fd5b506040516111ba3803806111ba83398101604081905261002f91610086565b600080546001600160a01b039485166001600160a01b03199182161790915560018054959094169416939093179091556002556008556100c9565b80516001600160a01b038116811461008157600080fd5b919050565b6000806000806080858703121561009c57600080fd5b6100a58561006a565b93506100b36020860161006a565b6040860151606090960151949790965092505050565b6110e2806100d86000396000f3fe608060405234801561001057600080fd5b50600436106100ea5760003560e01c8063c4e9f5ef1161008c578063e3ac39b111610066578063e3ac39b114610261578063eaf676f21461026a578063f66874b71461027d578063f851a440146102c457600080fd5b8063c4e9f5ef14610207578063ccd9f2441461022e578063d8319b4e1461024157600080fd5b806359b6a0c9116100c857806359b6a0c9146101ad57806359d85194146101b65780636bd9c5d7146101cb57806376388a02146101fe57600080fd5b80632b20e397146100ef578063345210dd1461011f578063509b08e114610136575b600080fd5b600154610102906001600160a01b031681565b6040516001600160a01b0390911681526020015b60405180910390f35b61012860035481565b604051908152602001610116565b61017d610144366004610bb8565b6006602052600090815260409020805460018201546002830154600384015460049094015492936001600160a01b039092169290919085565b604080519586526001600160a01b039094166020860152928401919091526060830152608082015260a001610116565b61012860025481565b6101c96101c4366004610dc8565b6102d7565b005b6101ee6101d9366004610bb8565b60076020526000908152604090205460ff1681565b6040519015158152602001610116565b61012860085481565b61021a610215366004610bb8565b61062e565b604051610116989796959493929190610ef6565b6101c961023c366004610fc4565b6107e5565b6101c961024f366004611019565b60009182526005602052604090912055565b61012860095481565b6101c961027836600461103b565b61097f565b61017d61028b366004610bb8565b6005602052600090815260409020805460018201546002830154600384015460049094015492936001600160a01b039092169290919085565b600054610102906001600160a01b031681565b6001546001600160a01b031633146103105760405162461bcd60e51b815260206004820152600060248201526044015b60405180910390fd5b8051600090815260056020526040902060020154806103685760405162461bcd60e51b81526020600482015260146024820152735765696768742063616e2774206265207a65726f60601b6044820152606401610307565b8060035410156103b35760405162461bcd60e51b815260206004820152601660248201527524b739bab33334b1b4b2b73a1031b0b830b1b4ba3c9760511b6044820152606401610307565b80600360008282546103c5919061107d565b909155505081516000526005602052815160009081526007602052604090205460ff161561045b5760405162461bcd60e51b815260206004820152603b60248201527f506f7461746f20626174636820697320616c7265616479207573656420666f7260448201527f20707265706172696e6720636869707320696e20666163746f727900000000006064820152608401610307565b8160a0015160095461046d9190611094565b60085410156104da5760405162461bcd60e51b815260206004820152603360248201527f4d61782073746f72616765206361706163697479206f6620636869707320706160448201527218dad95d0818985d18da08195e18d959591959606a1b6064820152608401610307565b8160a00151600960008282546104f09190611094565b909155505060008381526004602090815260409091208351815590830151805160018084018054879594939192839160ff19169083600281111561053657610536610e9a565b021790555060208201518154829061ff00191661010083600181111561055e5761055e610e9a565b021790555050506040820151805160028301908155602080830151805161058b9260038701920190610aef565b50505060608201518051600483018054909190829060ff1916600183818111156105b7576105b7610e9a565b021790555060208201518154829061ff0019166101008360028111156105df576105df610e9a565b021790555050506080820151600582015560a0820151600682015560c082015160078083019190915560e090920151600890910155600093845260046020526040909320429301929092555050565b6004602052600090815260409081902080548251808401909352600182018054919391829060ff16600281111561066757610667610e9a565b600281111561067857610678610e9a565b81528154602090910190610100900460ff16600181111561069b5761069b610e9a565b60018111156106ac576106ac610e9a565b815250509080600201604051806040016040529081600082015481526020016001820180548060200260200160405190810160405280929190818152602001828054801561074957602002820191906000526020600020906000905b82829054906101000a900460ff16600781111561072757610727610e9a565b8152602060019283018181049485019490930390920291018084116107085790505b5050509190925250506040805180820190915260048401805493949391925090829060ff16600181111561077f5761077f610e9a565b600181111561079057610790610e9a565b81528154602090910190610100900460ff1660028111156107b3576107b3610e9a565b60028111156107c4576107c4610e9a565b81525050908060050154908060060154908060070154908060080154905088565b6001546001600160a01b031633146108195760405162461bcd60e51b81526020600482015260006024820152604401610307565b8060095410156108805760405162461bcd60e51b815260206004820152602c60248201527f496e73756666696369656e74206361706163697479206f66206368697073207060448201526b30b1b5b2ba103130ba31b41760a11b6064820152608401610307565b600085815260066020526040902060020154156108f05760405162461bcd60e51b815260206004820152602860248201527f6368697073207061636b657420626174636820697320616c72656164792044696044820152671cdc185d18da195960c21b6064820152608401610307565b8060096000828254610902919061107d565b90915550506040805160a0810182529485526001600160a01b03938416602080870191825286830193845260608701948552426080880190815260009889526006909152919096209451855594516001850180546001600160a01b0319169190941617909255905160028301555160038201559051600490910155565b6001546001600160a01b031633146109b35760405162461bcd60e51b81526020600482015260006024820152604401610307565b80600081116109fb5760405162461bcd60e51b81526020600482015260146024820152735765696768742063616e2774206265207a65726f60601b6044820152606401610307565b60025481600354610a0c9190611094565b1115610a535760405162461bcd60e51b815260206004820152601660248201527526b0bc1031b0b830b1b4ba3c9032bc31b2b2b232b21760511b6044820152606401610307565b8060036000828254610a659190611094565b909155505060008481526005602052604090206002015415610ac95760405162461bcd60e51b815260206004820152601b60248201527f506f7461746f20626174636820616c72656164792073746f72656400000000006044820152606401610307565b506000928352600560205260409092206002810192909255600382015542600490910155565b82805482825590600052602060002090601f01602090048101928215610b935791602002820160005b83821115610b6457835183826101000a81548160ff02191690836007811115610b4357610b43610e9a565b02179055509260200192600101602081600001049283019260010302610b18565b8015610b915782816101000a81549060ff0219169055600101602081600001049283019260010302610b64565b505b50610b9f929150610ba3565b5090565b5b80821115610b9f5760008155600101610ba4565b600060208284031215610bca57600080fd5b5035919050565b634e487b7160e01b600052604160045260246000fd5b6040805190810167ffffffffffffffff81118282101715610c0a57610c0a610bd1565b60405290565b604051610100810167ffffffffffffffff81118282101715610c0a57610c0a610bd1565b604051601f8201601f1916810167ffffffffffffffff81118282101715610c5d57610c5d610bd1565b604052919050565b60038110610c7257600080fd5b50565b60028110610c7257600080fd5b600060408284031215610c9457600080fd5b610c9c610be7565b90508135610ca981610c65565b81526020820135610cb981610c75565b602082015292915050565b600060408284031215610cd657600080fd5b610cde610be7565b90508135815260208083013567ffffffffffffffff80821115610d0057600080fd5b818501915085601f830112610d1457600080fd5b813581811115610d2657610d26610bd1565b8060051b9150610d37848301610c34565b8181529183018401918481019088841115610d5157600080fd5b938501935b83851015610d80578435925060088310610d705760008081fd5b8282529385019390850190610d56565b808688015250505050505092915050565b600060408284031215610da357600080fd5b610dab610be7565b90508135610db881610c75565b81526020820135610cb981610c65565b60008060408385031215610ddb57600080fd5b82359150602083013567ffffffffffffffff80821115610dfa57600080fd5b908401906101408287031215610e0f57600080fd5b610e17610c10565b82358152610e288760208501610c82565b6020820152606083013582811115610e3f57600080fd5b610e4b88828601610cc4565b604083015250610e5e8760808501610d91565b606082015260c0830135608082015260e083013560a082015261010083013560c082015261012083013560e08201528093505050509250929050565b634e487b7160e01b600052602160045260246000fd5b60038110610c7257610c72610e9a565b60028110610c7257610c72610e9a565b8051610edb81610ec0565b82526020810151610eeb81610eb0565b806020840152505050565b60006101408a835260208a51610f0b81610eb0565b848201528a810151610f1c81610ec0565b8060408601525081606085015261018084018a5183860152818b0151925060406101608601528083518083526101a0870191508385019450600092505b80831015610f8957845160088110610f7357610f73610e9a565b8252938301936001929092019190830190610f59565b509350610f9d925050506080830188610ed0565b8560c08301528460e083015283610100830152826101208301529998505050505050505050565b600080600080600060a08688031215610fdc57600080fd5b853594506020860135935060408601356001600160a01b038116811461100157600080fd5b94979396509394606081013594506080013592915050565b6000806040838503121561102c57600080fd5b50508035926020909101359150565b60008060006060848603121561105057600080fd5b505081359360208301359350604090920135919050565b634e487b7160e01b600052601160045260246000fd5b60008282101561108f5761108f611067565b500390565b600082198211156110a7576110a7611067565b50019056fea2646970667358221220d5b90afc34bfa647c489c4ec300334c9e0e4027f70a90fafe49d771fa9680edc64736f6c63430008090033608060405234801561001057600080fd5b5060405161089c38038061089c83398101604081905261002f91610083565b600080546001600160a01b039384166001600160a01b03199182161790915560018054939094169216919091179091556002556100bf565b80516001600160a01b038116811461007e57600080fd5b919050565b60008060006060848603121561009857600080fd5b6100a184610067565b92506100af60208501610067565b9150604084015190509250925092565b6107ce806100ce6000396000f3fe608060405234801561001057600080fd5b506004361061009e5760003560e01c80635c7867c3116100665780635c7867c314610149578063a335aaf11461015c578063d8319b4e146101d4578063dd0a333e146101f4578063f851a4401461021457600080fd5b80632b20e397146100a35780632b2b9c74146100d3578063345210dd146101145780633fe4216e1461012b57806359b6a0c914610140575b600080fd5b6001546100b6906001600160a01b031681565b6040516001600160a01b0390911681526020015b60405180910390f35b6101056100e1366004610663565b600560205260009081526040902080546001820154600290920154909160ff169083565b6040516100ca93929190610692565b61011d60035481565b6040519081526020016100ca565b61013e6101393660046106c8565b610227565b005b61011d60025481565b61013e610157366004610705565b6104da565b6101a461016a366004610663565b60046020819052600091825260409091208054600182015460028301546003840154939094015491936001600160a01b0390911692909185565b604080519586526001600160a01b039094166020860152928401919091526060830152608082015260a0016100ca565b61013e6101e2366004610731565b60009182526004602052604090912055565b61011d610202366004610663565b60066020526000908152604090205481565b6000546100b6906001600160a01b031681565b6001546001600160a01b031633146102605760405162461bcd60e51b815260206004820152600060248201526044015b60405180910390fd5b600082815260046020528082600281111561027d5761027d61067c565b141561028b57506064610318565b600182600281111561029f5761029f61067c565b14156102ad575060c8610318565b60028260028111156102c1576102c161067c565b14156102d057506101f4610318565b60405162461bcd60e51b815260206004820152601760248201527f57726f6e67206368697073207061636b65742073697a650000000000000000006044820152606401610257565b600083815260066020526040902054610332908290610769565b60008481526004602052604090206002015410156103c45760405162461bcd60e51b815260206004820152604360248201527f496e73756666696369656e74206361706163697479206f66206368697073207060448201527f61636b65742066726f6d2074686973206368697073207061636b65742062617460648201526231b41760e91b608482015260a401610257565b8060035410156104255760405162461bcd60e51b815260206004820152602660248201527f496e73756666696369656e74206361706163697479206f66206368697073207060448201526530b1b5b2ba1760d11b6064820152608401610257565b80600360008282546104379190610781565b9250508190555060405180606001604052808481526020018360028111156104615761046161067c565b81524260209182015260008681526005825260409020825181559082015160018083018054909160ff19909116908360028111156104a1576104a161067c565b02179055506040918201516002909101556000848152600660205290812080548392906104cf908490610769565b909155505050505050565b6001546001600160a01b0316331461050e5760405162461bcd60e51b81526020600482015260006024820152604401610257565b81600081116105565760405162461bcd60e51b81526020600482015260146024820152735765696768742063616e2774206265207a65726f60601b6044820152606401610257565b600254816003546105679190610769565b11156105ae5760405162461bcd60e51b815260206004820152601660248201527526b0bc1031b0b830b1b4ba3c9032bc31b2b2b232b21760511b6044820152606401610257565b80600360008282546105c09190610769565b90915550506000848152600460205260409020600201541561063b5760405162461bcd60e51b815260206004820152602e60248201527f416c72656164792073746f726564206368697073207061636b6574206261746360448201526d1a081dda5d1a081d1a1a5cc81a5960921b6064820152608401610257565b5060009283526004602081905260409093206003810191909155600281019190915542910155565b60006020828403121561067557600080fd5b5035919050565b634e487b7160e01b600052602160045260246000fd5b83815260608101600384106106b757634e487b7160e01b600052602160045260246000fd5b602082019390935260400152919050565b6000806000606084860312156106dd57600080fd5b83359250602084013591506040840135600381106106fa57600080fd5b809150509250925092565b60008060006060848603121561071a57600080fd5b505081359360208301359350604090920135919050565b6000806040838503121561074457600080fd5b50508035926020909101359150565b634e487b7160e01b600052601160045260246000fd5b6000821982111561077c5761077c610753565b500190565b60008282101561079357610793610753565b50039056fea2646970667358221220bdd2aae373f888ae1d99f013a03415270450db6327533c439eed4cfd3550401f64736f6c63430008090033608060405260016004553480156200001657600080fd5b506040516200196838038062001968833981016040819052620000399162000244565b8183823380600081620000935760405162461bcd60e51b815260206004820152601860248201527f43616e6e6f7420736574206f776e657220746f207a65726f000000000000000060448201526064015b60405180910390fd5b600680546001600160a01b0319166001600160a01b0384811691909117909155811615620000c657620000c6816200017a565b5050600880546001600160a01b03199081166001600160a01b03968716179091556009805482169490951693909317909355600a556002805490911673326c977e6efc84e512bb9c30f76e30c160ed06fb17905550600380546001600160a01b0319167340193c8518bb267228fc409a613bdbd8ec5a97b317905550507f3533663937353539323063643435316138666534366635303837343638333935600d555067016345785d8a0000600e5562000285565b6001600160a01b038116331415620001d55760405162461bcd60e51b815260206004820152601760248201527f43616e6e6f74207472616e7366657220746f2073656c6600000000000000000060448201526064016200008a565b600780546001600160a01b0319166001600160a01b03838116918217909255600654604051919216907fed8889f560326eb138920d842192f0eb3dd22b4f139c87a2c57538e05bae127890600090a350565b80516001600160a01b03811681146200023f57600080fd5b919050565b6000806000606084860312156200025a57600080fd5b620002658462000227565b9250620002756020850162000227565b9150604084015190509250925092565b6116d380620002956000396000f3fe608060405234801561001057600080fd5b50600436106100f55760003560e01c80638da5cb5b11610097578063f2ef07ad11610066578063f2ef07ad14610227578063f2fde38b1461023a578063f851a4401461024d578063fda4417b1461026057600080fd5b80638da5cb5b146101e45780639086790a146101f5578063c618a1e4146101fe578063e93956791461020757600080fd5b80633692f830116100d35780633692f83014610156578063573f6063146101c057806359b6a0c9146101d357806379ba5097146101dc57600080fd5b806319adff95146100fa5780632b20e3971461010f578063345210dd1461013f575b600080fd5b61010d6101083660046111f7565b610273565b005b600954610122906001600160a01b031681565b6040516001600160a01b0390911681526020015b60405180910390f35b610148600b5481565b604051908152602001610136565b6101ad610164366004611219565b601060205260009081526040902080546001820154600283015460038401546004850154600590950154939460ff8416946101009094046001600160a01b039081169493169287565b6040516101369796959493929190611248565b6101486101ce3660046112c0565b6103e4565b610148600a5481565b61010d61051d565b6006546001600160a01b0316610122565b610148600f5481565b610148600c5481565b61021a610215366004611219565b6105cb565b6040516101369190611354565b61010d610235366004611219565b6106d1565b61010d610248366004611367565b610895565b600854610122906001600160a01b031681565b61010d61026e366004611382565b6108a9565b6009546001600160a01b031633146102ac5760405162461bcd60e51b815260206004820152600060248201526044015b60405180910390fd5b600f548211156102f45760405162461bcd60e51b8152602060048201526013602482015272125b9d985b1a59081cda1a5c1b595b9d081251606a1b60448201526064016102a3565b80600114156103945760008281526010602052604090819020426004808301919091556001808301805460ff19169091179055600282015491549251636c18cda760e11b815290810192909252602482018490526001600160a01b031690819063d8319b4e90604401600060405180830381600087803b15801561037757600080fd5b505af115801561038b573d6000803e3d6000fd5b50505050505050565b80600214156103aa576103a6826106d1565b5050565b60405162461bcd60e51b815260206004820152600f60248201526e7374617475732069732077726f6e6760881b60448201526064016102a3565b6009546000906001600160a01b0316331461041b5760405162461bcd60e51b815260206004820152600060248201526044016102a3565b600f805490600061042b836113ca565b90915550506040805160e081018252858152600060208083018281526001600160a01b03808916858701528716606085015242608085015260a0840183905260c08401839052600f548352601090915292902081518155915160018084018054939493909160ff19909116908360028111156104a9576104a9611232565b02179055506040820151600182018054610100600160a81b0319166101006001600160a01b039384160217905560608301516002830180546001600160a01b031916919092161790556080820151600382015560a0820151600482015560c0909101516005909101555050600f5492915050565b6007546001600160a01b031633146105705760405162461bcd60e51b815260206004820152601660248201527526bab9ba10313290383937b837b9b2b21037bbb732b960511b60448201526064016102a3565b600680546001600160a01b0319808216339081179093556007805490911690556040516001600160a01b03909116919082907f8be0079c531659141344cd1fd0a4f28419497f9722a3daafe3b4186f6b6457e090600090a350565b6060816105ef5750506040805180820190915260018152600360fc1b602082015290565b6000825b80156106195781610603816113ca565b92506106129050600a826113fb565b90506105f3565b60008267ffffffffffffffff8111156106345761063461140f565b6040519080825280601f01601f19166020018201604052801561065e576020820181803683370190505b5090505b84156106c957610673600184611425565b9250610680600a8661143c565b61068b906030611450565b60f81b8184815181106106a0576106a0611468565b60200101906001600160f81b031916908160001a9053506106c2600a866113fb565b9450610662565b949350505050565b60006106e7600d543063fda4417b60e01b610a21565b905061073c6040518060400160405280600681526020016575726c42544360d01b815250610714846105cb565b604051602001610724919061147e565b60408051601f19818403018152919052839190610a46565b61078a604051806040016040528060078152602001667061746842544360c81b81525060405180604001604052806002815260200161125160f21b81525083610a469092919063ffffffff16565b6107b5604051806040016040528060068152602001651d5c9b1554d160d21b815250610714846105cb565b610807604051806040016040528060078152602001661c185d1a1554d160ca1b8152506040518060400160405280600681526020016553544154555360d01b81525083610a469092919063ffffffff16565b610832604051806040016040528060068152602001653ab93622aaa960d11b815250610714846105cb565b610884604051806040016040528060078152602001663830ba3422aaa960c91b8152506040518060400160405280600681526020016515d15251d21560d21b81525083610a469092919063ffffffff16565b61089081600e54610a64565b505050565b61089d610a87565b6108a681610adc565b50565b60008481526005602052604090205484906001600160a01b031633146109225760405162461bcd60e51b815260206004820152602860248201527f536f75726365206d75737420626520746865206f7261636c65206f6620746865604482015267081c995c5d595cdd60c21b60648201526084016102a3565b60008181526005602052604080822080546001600160a01b03191690555182917f7cc135e0cebb02c3480ae5d74d377283180a2601f8f644edf7987b009316c63a91a2610972620186a0846113fb565b600281111561098357610983611232565b60106000610994620186a0886113fb565b815260200190815260200160002060010160006101000a81548160ff021916908360028111156109c6576109c6611232565b021790555081601060006109dd620186a0886113fb565b8152602001908152602001600020600501819055504260106000620186a087610a0691906113fb565b81526020810191909152604001600020600501555050505050565b610a296111bc565b610a316111bc565b610a3d81868686610b87565b95945050505050565b6080830151610a559083610bc4565b60808301516108909082610bc4565b600354600090610a7e906001600160a01b03168484610bdb565b90505b92915050565b6006546001600160a01b03163314610ada5760405162461bcd60e51b815260206004820152601660248201527527b7363c9031b0b63630b1363290313c9037bbb732b960511b60448201526064016102a3565b565b6001600160a01b038116331415610b355760405162461bcd60e51b815260206004820152601760248201527f43616e6e6f74207472616e7366657220746f2073656c6600000000000000000060448201526064016102a3565b600780546001600160a01b0319166001600160a01b03838116918217909255600654604051919216907fed8889f560326eb138920d842192f0eb3dd22b4f139c87a2c57538e05bae127890600090a350565b610b8f6111bc565b610b9f8560800151610100610c6e565b50509183526001600160a01b031660208301526001600160e01b031916604082015290565b610bd18260038351610cd3565b6108908282610de8565b600454600090610bec816001611450565b600455835160408086015160808701515191516000936320214ca360e11b93610c249386938493923092918a916001916024016114d6565b60408051601f198184030181529190526020810180516001600160e01b03166001600160e01b0319909316929092179091529050610c6486838684610e0f565b9695505050505050565b604080518082019091526060815260006020820152610c8e60208361143c565b15610cb657610c9e60208361143c565b610ca9906020611425565b610cb39083611450565b91505b506020828101829052604080518085526000815290920101905290565b60178167ffffffffffffffff1611610cfe57610cf88360e0600585901b168317610f7c565b50505050565b60ff8167ffffffffffffffff1611610d3c57610d25836018611fe0600586901b1617610f7c565b50610cf88367ffffffffffffffff83166001610fa1565b61ffff8167ffffffffffffffff1611610d7b57610d64836019611fe0600586901b1617610f7c565b50610cf88367ffffffffffffffff83166002610fa1565b63ffffffff8167ffffffffffffffff1611610dbc57610da583601a611fe0600586901b1617610f7c565b50610cf88367ffffffffffffffff83166004610fa1565b610dd183601b611fe0600586901b1617610f7c565b50610cf88367ffffffffffffffff83166008610fa1565b604080518082019091526060815260006020820152610a7e83846000015151848551610fc7565b6040516bffffffffffffffffffffffff193060601b1660208201526034810184905260009060540160408051808303601f1901815282825280516020918201206000818152600590925291812080546001600160a01b0319166001600160a01b038a1617905590925082917fb5e6e01e79f91267dc17b4e6314d5d4d03593d2ceee0fbb452b750bd70ea5af99190a2600254604051630200057560e51b81526001600160a01b0390911690634000aea090610ed29088908790879060040161153e565b602060405180830381600087803b158015610eec57600080fd5b505af1158015610f00573d6000803e3d6000fd5b505050506040513d601f19601f82011682018060405250810190610f249190611565565b6106c95760405162461bcd60e51b815260206004820152602360248201527f756e61626c6520746f207472616e73666572416e6443616c6c20746f206f7261604482015262636c6560e81b60648201526084016102a3565b604080518082019091526060815260006020820152610a7e83846000015151846110b1565b6040805180820190915260608152600060208201526106c984856000015151858561110d565b6040805180820190915260608152600060208201528251821115610fea57600080fd5b6020850151610ff98386611450565b111561102c5761102c8561101c876020015187866110179190611450565b61118e565b61102790600261158e565b6111a5565b60008086518051876020830101935080888701111561104b5787860182525b505050602084015b6020841061108b578051825261106a602083611450565b9150611077602082611450565b9050611084602085611425565b9350611053565b51815160001960208690036101000a019081169019919091161790525083949350505050565b604080518082019091526060815260006020820152836020015183106110e6576110e68485602001516002611027919061158e565b835180516020858301018481535080851415611103576001810182525b5093949350505050565b60408051808201909152606081526000602082015260208501516111318584611450565b1115611145576111458561101c8685611450565b6000600161115584610100611691565b61115f9190611425565b90508551838682010185831982511617815250805184870111156111835783860181525b509495945050505050565b60008183111561119f575081610a81565b50919050565b81516111b18383610c6e565b50610cf88382610de8565b6040805160a0810182526000808252602080830182905282840182905260608084018390528451808601909552845283015290608082015290565b6000806040838503121561120a57600080fd5b50508035926020909101359150565b60006020828403121561122b57600080fd5b5035919050565b634e487b7160e01b600052602160045260246000fd5b87815260e081016003881061126d57634e487b7160e01b600052602160045260246000fd5b60208201979097526001600160a01b039586166040820152939094166060840152608083019190915260a082015260c00152919050565b80356001600160a01b03811681146112bb57600080fd5b919050565b6000806000606084860312156112d557600080fd5b833592506112e5602085016112a4565b91506112f3604085016112a4565b90509250925092565b60005b838110156113175781810151838201526020016112ff565b83811115610cf85750506000910152565b600081518084526113408160208601602086016112fc565b601f01601f19169290920160200192915050565b602081526000610a7e6020830184611328565b60006020828403121561137957600080fd5b610a7e826112a4565b6000806000806080858703121561139857600080fd5b5050823594602084013594506040840135936060013592509050565b634e487b7160e01b600052601160045260246000fd5b60006000198214156113de576113de6113b4565b5060010190565b634e487b7160e01b600052601260045260246000fd5b60008261140a5761140a6113e5565b500490565b634e487b7160e01b600052604160045260246000fd5b600082821015611437576114376113b4565b500390565b60008261144b5761144b6113e5565b500690565b60008219821115611463576114636113b4565b500190565b634e487b7160e01b600052603260045260246000fd5b7f68747470733a2f2f6170692d737570706c796c65646765722e6f6e72656e6465815269722e636f6d2f6170692f60b01b6020820152600082516114c981602a8501602087016112fc565b91909101602a0192915050565b6001600160a01b0389811682526020820189905260408201889052861660608201526001600160e01b03198516608082015260a0810184905260c0810183905261010060e0820181905260009061152f83820185611328565b9b9a5050505050505050505050565b60018060a01b0384168152826020820152606060408201526000610a3d6060830184611328565b60006020828403121561157757600080fd5b8151801515811461158757600080fd5b9392505050565b60008160001904831182151516156115a8576115a86113b4565b500290565b600181815b808511156115e85781600019048211156115ce576115ce6113b4565b808516156115db57918102915b93841c93908002906115b2565b509250929050565b6000826115ff57506001610a81565b8161160c57506000610a81565b8160018114611622576002811461162c57611648565b6001915050610a81565b60ff84111561163d5761163d6113b4565b50506001821b610a81565b5060208310610133831016604e8410600b841016171561166b575081810a610a81565b61167583836115ad565b8060001904821115611689576116896113b4565b029392505050565b6000610a7e83836115f056fea2646970667358221220ad1122c0cc5e6c5d547e339160eecb016ef825ad83e3a65d151b75378fed5b6764736f6c63430008090033a2646970667358221220c8c0f2ce83050be6dbfb0edc7f94607f699ce10bfdbb9c16855d4d3136ff1ef464736f6c63430008090033",
  "linkReferences": {},
  "deployedLinkReferences": {}
}